:020000040800F2
:1000000078090020490100086D0800086F08000801
:1000100073080008770800087B080008000000004B
:100020000000000000000000000000007F08000841
:100030008108000800000000830800088508000807
:100040006301000863010008630100086301000800
:1000500063010008630100086301000863010008F0
:1000600063010008630100086301000863010008E0
:1000700063010008630100086301000863010008D0
:1000800063010008630100086301000863010008C0
:1000900063010008630100086301000863010008B0
:1000A00063010008630100086301000863010008A0
:1000B0006301000863010008630100086301000890
:1000C0006301000863010008630100086301000880
:1000D0006301000863010008630100086301000870
:1000E000210B000863010008630100086301000898
:1000F0006301000863010008630100086301000850
:10010000630100086301000863010008630100083F
:10011000A7120008630100086301000863010008DA
:10012000630100086301000863010008630100081F
:10013000DFF810D002F0D2FA00480047230500088B
:10014000AFF3008078090020064880470648004742
:10015000FEE7FEE7FEE7FEE7FEE7FEE7FEE7FEE777
:10016000FEE7FEE733140008310100082DE9F04FE7
:1001700095B000200D900C90FB48007800286FD0BF
:100180000020FA4908604FF48060F9490860091FAF
:100190000860091D08600120F649C1F8800180024D
:1001A000F349091F08600020F34908800BE1002093
:1001B000F2490880FCE04FF48060ED490860F048A7
:1001C0000068C0F3072113914FF48060E849091FCC
:1001D0000860091D0860EA480068C0F30720129013
:1001E0000815091F0860DDE9120140EA012011909D
:1001F000F821119801EA2027FC21119801EAE00872
:100200001198C0064FEA1069C14503DDCDF8408062
:100210004C4602E0CDF840904446A74201DB3C4604
:1002200003E01098874200DA1097BC4219D1109968
:10023000601A02F087F9CDE90601A8EB090002F087
:1002400081F90022CF4BCDE9020102F09AF8CDE905
:100250000401DDE9062302F006F905460E4642E0F8
:100260005CE144451FD11099601A02F06BF9CDE9A9
:100270000401A9EB070002F065F90022C14BCDE9AA
:10028000000102F07EF8CDE90201DDE9042302F06D
:10029000EAF800224FF08043CDE9060101F0CAFFE1
:1002A00005460E461FE04C451DD11099601A02F01C
:1002B00049F9CDE90401A7EB080002F043F9002257
:1002C000B04BCDE9000102F05CF8CDE90201DDE9B7
:1002D000042302F0C8F80022AB4BCDE9060101F07F
:1002E000A9FF05460E460022A84B2846314602F0DB
:1002F00048F805460E46002213462846314602F0CD
:100300003FF907D20022A24B2846314601F092FF66
:1003100005460E46204602F026F9CDE90E01109959
:10032000601A00229B4B2846314602F041F906D361
:100330000022964B2846314602F022F911D20022C3
:10034000954BDDE90E0102F033F90AD20B98401CFF
:1003500080B20B900B98012825D18848B0F800A0F6
:1003600021E00B98D0B18548B0F800B0ABEB0A00A3
:10037000322813DDCDF850A007E00121874A1498F8
:1003800022F810101498401C149014985845F4D971
:1003900001218348784A128820F8121000200B901F
:1003A0004FF6FF70119075480088401C7349088013
:1003B00072480088B0F5A07FFFF6FDAE6E48008859
:1003C000401C6D4908806C480088F028FFF6EFAEAD
:1003D0004FF0000BDA460020684908800EE06F48B5
:1003E0006649098830F8110018B16448B0F800A0D7
:1003F00009E062480088401C604908805F48008826
:10040000B0F5A07FEBDB00BF40F23F105B490880F6
:100410000EE062485949098830F8110018B1574870
:10042000B0F800B008E055480088401E53490880E5
:10043000524800880028ECDC00BF002009900A9098
:100440004D4908800EE056484B49098830F81100A4
:1004500018B1494800880A9008E047480088401CC5
:100460004549088044480088F028ECDB00BFEF20B5
:10047000414908800EE04A483F49098830F8110098
:1004800018B13D480088099008E03B480088401EAC
:1004900039490880384800880028ECDC00BFD34583
:1004A0002CD0DDE90901884228D0FB203D490870A5
:1004B00001203D490880ABEB0A004B2808DDDDE94F
:1004C0000901401A4B2803DDFC203849087002E07E
:1004D000FD2036490870DDE90912881800EBD0715B
:1004E000C1F34F01324A11800BEB0A0000EBD071CF
:1004F0004910C1F5A0712F4A11800CE000202A4953
:1005000008802D480078022802D101202A4908706D
:10051000FA202449087000201349087015B0BDE87E
:10052000F08F00F07AFE254800F07FFE00F03EFBE1
:100530004FF4A06000F0FEFF2149B1F1807F01D3AC
:1005400001204DE021F07F40401E4FF0E02250613D
:1005500050170F22002837DA13071D0E194B00F031
:100560000F04241F1D5533E01E000020800124428B
:10057000140C0140000024420E0000201000002056
:10058000081801400000F03F0000104000004E40FD
:100590000080764000C072400000504050000020B3
:1005A000E4020020140000201C00002015000020A0
:1005B000160000201800002013000020004C00400E
:1005C0004019010018ED00E013071C0E994B1C5454
:1005D00000BF00204FF0E022906107201061002052
:1005E00008B100BFFEE70020934908701DE000F04D
:1005F00047FBD0B90022F0214FF4A07000F0FDFCC1
:10060000002000F0BCFB042000F042FC6FF003006F
:1006100000F052FC6FF0030000F07FFC002000F0BF
:100620008DFC00208549086000E0E0E700BF00F095
:1006300092FAFA2082490870012082490870F7E096
:100640000020814908800AE0002080497E4A128803
:1006500021F812007C480088401C7B4908807A48B9
:100660000088B0F5A07FEFDB0020794908800AE020
:1006700000217848764A128820F8121074480088C1
:10068000401C7349088072480088F028F0DB6D48F0
:100690000078012802D002287ED11AE000206E499D
:1006A000088000BF40216D4801F06AFD0028F9D0A4
:1006B00080216A4801F0F6FC00BF4021674801F044
:1006C0005FFD0028F9D05E480178644801F0EAFC3B
:1006D000ABE06148008801287DD100205E49088098
:1006E00000BF40215D4801F04BFD0028F9D080217A
:1006F0005A4801F0D7FC00BF4021584801F040FDA6
:100700000028F9D0FE21554801F0CCFC00BF402163
:10071000524801F035FD0028F9D0514801784F4882
:1007200001F0C0FC00BF40214C4801F029FD002829
:10073000F9D04C480088642190FBF1F084B2214646
:10074000464801F0AFFC00BF4021444801F018FDCD
:100750000028F9D0434800880A2190FBF1F090FB73
:10076000F1F201FB120084B221463C4801F09AFCF0
:1007700000BF4021394801F003FD0028F9D0394875
:1007800000880A2190FBF1F201FB120084B221469D
:10079000324801F087FC00E046E000BF40212F48CE
:1007A00001F0EEFC0028F9D02F480088642190FB6E
:1007B000F1F084B22146294801F074FC00BF4021C9
:1007C000264801F0DDFC0028F9D0274800880A21DE
:1007D00090FBF1F000E026E090FBF1F201FB12004B
:1007E00084B221461D4801F05DFC00BF40211B483A
:1007F00001F0C6FC0028F9D01B4800880A2190FBB4
:10080000F1F201FB120084B22146144801F04AFCC7
:1008100000BF4021114801F0B3FC0028F9D0FE21AF
:100820000E4801F03FFC00E000BF00BFFFF79EFC58
:1008300006E7000000E400E00C0000209C012342D9
:1008400014000020130000201000002050000020A1
:100850000E000020E40200201C000020004C00409C
:10086000150000201600002018000020704700BF6F
:10087000FEE700BFFEE700BFFEE700BFFEE77047F0
:100880007047704710B500F04FFD10BD08B501214D
:100890004FF4C07001F066FA0220ADF80000482065
:1008A0008DF8030003208DF802006946964800F099
:1008B0009DFF0221944801F046F84FF40040ADF846
:1008C000000010208DF803006946904800F08EFF6C
:1008D0004FF400418D4801F036F88B48006820F055
:1008E000F000894908600846006840F03000086060
:1008F00008BD10B50120864908608649C1F8BC01D1
:10090000322000F06CF9002081490860322000F0AC
:1009100066F900207F49C1F8BC0110BD10B5002068
:100920007B490860322000F05AF901207949C1F86A
:10093000BC01322000F053F90120754908603220D3
:1009400000F04DF910BD10B5322000F048F901203B
:100950006F4908606F49C1F8BC01322000F03FF9CF
:1009600000206D490860322000F039F900206B4901
:10097000C1F88401322000F032F910BD70B5044690
:1009800000261AE004F0800018B1012060490860D8
:1009900002E000205E4908606006040E322000F08C
:1009A0001EF901205C490860322000F018F900208F
:1009B0005849C1F8BC01701CC6B2082EE2DB52488F
:1009C000006820F0F000504908600846006840F0D8
:1009D00080000860322000F002F901204E490860D2
:1009E000322000F0FCF84D48D0F8040108B1012590
:1009F00000E000250020484908604348006820F0D6
:100A0000F000414908600846006840F03000086086
:100A1000284670BD70B500243B48006820F0F00007
:100A2000394908600846006840F0800008600825E1
:100A300015E0322000F0D3F8012037490860600645
:100A4000040E3648D0F8040108B1601CC4B232204C
:100A500000F0C5F8002030490860681EC5B2002DBE
:100A6000E7DC2948006820F0F000274908600846C4
:100A7000006840F030000860204670BD70B5054643
:100A80000C460026FFF735FF4220FFF777FF00B145
:100A90000126642000F0A3F82846FFF76FFF00B19D
:100AA0000126642000F09BF82046FFF767FF00B1A5
:100AB0000126FFF733FF304670BD70B504460025B0
:100AC000FFF717FF4220FFF759FF642000F087F877
:100AD0002046FFF753FF642000F081F8FFF71EFF68
:100AE000642000F07CF8FFF704FF4320FFF746FF87
:100AF000642000F074F8FFF78DFF0546FFF723FF31
:100B0000FFF70CFF284670BD00200140001C01408B
:100B10008401244200802342BC81234200002442FD
:100B200010B54FF4005000F0E7FD01280ED1002071
:100B30001A49086001201A49C1F8B8011949C1F8D9
:100B4000AC0119480078401C174908704FF4005058
:100B500000F0E3FD10BD0EB50D21052000F05CFF97
:100B60004FF40050019000208DF8080008208DF807
:100B7000090001208DF80A0001A800F057FD282087
:100B80008DF8000000208DF801008DF80200012092
:100B90008DF80300684600F0D2FC0EBDB8812342F8
:100BA00000802342008021421E00002010B56FF01B
:100BB000040000F00EFD2E4800682E49B0FBF1F055
:100BC0002D4908700846007800EB4001C1EBC010C9
:100BD0004FF6FF7101EAC0002849088010BD0146A8
:100BE000254A12784A434FF0E0235A6100229A6165
:100BF0001A46126942F001021A6100BF4FF0E0226A
:100C0000106900F001021AB100F48032002AF5D018
:100C10004FF0E022126922F001024FF0E0231A6146
:100C200000229A6170470146144A12884A434FF0E5
:100C3000E0235A6100229A611A46126942F00102C9
:100C40001A6100BF4FF0E022106900F001021AB1F2
:100C500000F48032002AF5D04FF0E022126922F031
:100C600001024FF0E0231A6100229A6170470000F0
:100C70002800002000127A0020000020220000201E
:100C800038B500240025012140F2C91001F06AF8AE
:100C90004FF40050ADF8000048208DF80300032009
:100CA0008DF802006946FE4800F0A0FD4FF40051A7
:100CB000FB4800F048FE4FF44060ADF80000102003
:100CC0008DF803006946F74800F090FD4FF440614D
:100CD000F44800F038FE4FF47F40ADF800004820A3
:100CE0008DF803006946F04800F080FD4FF4804025
:100CF000ADF8000010208DF803006946E84800F0C8
:100D000075FD4FF48041E64800F01DFE0120ADF86E
:100D1000000010208DF803006946E44800F066FDED
:100D20000121E24800F00FFE8020ADF80000102005
:100D30008DF803006946DC4800F058FD8021DA4850
:100D400000F001FEFFF7A2FD80211220FFF796FEC2
:100D500008B1012038BD3220FFF765FF00240AE00A
:100D6000D34A02EB44025178D14A12F81400FFF73B
:100D700085FE601C84B2412CF2D30020EAE710B556
:100D80000446062C14D2DFE804F003142D465F78E5
:100D9000FF211320FFF772FE65210E20FFF76EFE84
:100DA00000212D20FFF76AFE00212E20FFF766FEAE
:100DB0006CE0FD211320FFF761FE5A210120FFF7AF
:100DC0005DFE5C210220FFF759FE65210E20FFF732
:100DD00055FE00212D20FFF751FE00212E20FFF7A8
:100DE0004DFE53E0FD211320FFF748FE582101205E
:100DF000FFF744FE60210220FFF740FE65210E2030
:100E0000FFF73CFE00212D20FFF738FE00212E20A9
:100E1000FFF734FE3AE0FD211320FFF72FFE842177
:100E20000120FFF72BFE4C210220FFF727FE652152
:100E30000E20FFF723FE00212D20FFF71FFE0021CB
:100E40002E20FFF71BFE21E0FD211320FFF716FEE9
:100E500096210120FFF712FE40210220FFF70EFE2F
:100E600065210E20FFF70AFE00212D20FFF706FE68
:100E700000212E20FFF702FE08E0FF211320FFF7DC
:100E8000FDFDE5210E20FFF7F9FD00BF00BF10BDFD
:100E900010B5044614F1040F0DDB042C0BDC201DEF
:100EA0000007010EA720FFF7E9FD201D0007010E36
:100EB000A820FFF7E3FD10BD70B50646301D0928D8
:100EC00021D2DFE800F01D1A1714110E0B080500DF
:100ED0004824062517E03824062514E02824062592
:100EE00011E0182406250EE0082406250BE008244E
:100EF0000E2508E018240E2505E028240E2502E022
:100F000038240E2500BF00BF21469B20FFF7B6FD09
:100F10002946AB20FFF7B2FD70BD10B5044614F1B1
:100F2000040F0ADB042C08DCC4F104003022A2EB1D
:100F30008000C1B29C20FFF7A1FD10BD10B5044692
:100F4000072C58D2DFE804F004111623303D4A0084
:100F50000621A620FFF792FD80216020FFF78EFD7D
:100F600080216120FFF78AFD45E04621A620FFF79A
:100F700085FD40E02621A620FFF780FD802160202E
:100F8000FFF77CFD80216120FFF778FD33E01E2113
:100F9000A620FFF773FD80216020FFF76FFDC021C1
:100FA0006120FFF76BFD26E01E21A620FFF766FDFE
:100FB00060210846FFF762FD60216120FFF75EFDBA
:100FC00019E01E21A620FFF759FDA0216020FFF7A0
:100FD00055FD40216120FFF751FD0CE01E21A620A8
:100FE000FFF74CFD40216020FFF748FDA021612064
:100FF000FFF744FD00BF00BF10BD2DE9F0470446D8
:101000000D469146B9F1000F2CD0C4F5207000EBCD
:10101000D071C1F34F07C5F5F07000EBD071C1F38B
:101020004F0806211220FFF729FD23211720FFF783
:1010300025FDA0211820FFF721FD07211920FFF72A
:101040001DFDF0211A20FFF719FD00213220FFF7C6
:1010500015FDA0212920FFF711FDF0212C20FFF71D
:101060000DFD36E0C4F5A07000EBD071C1F34F0761
:10107000C5F1F00000EBD071C1F34F0846211220FA
:10108000FFF7FCFC3F211720FFF7F8FC5021182048
:10109000FFF7F4FC03211920FFF7F0FC782109E0A9
:1010A000001C0140000C01400018014000200140DC
:1010B0003E2700081A20FFF7E1FC00213220FFF74D
:1010C000DDFC50212920FFF7D9FC78212C20FFF7E7
:1010D000D5FC1720FFF7F1FC064606EBA70000F051
:1010E000FF0A51461720FFF7C9FCC4F387011820F7
:1010F000FFF7C4FC1920FFF7E0FC064606EB68008A
:1011000000F0FF0A51461920FFF7B8FCC5F347016C
:101110001A20FFF7B3FC3220FFF7CFFC06464FEA58
:10112000C870400E07F0030140EA011005F001010C
:1011300040EA810004F00301084340EA060A5146F0
:101140003220FFF79BFCC4F387012920FFF796FCB0
:10115000C5F347012C20FFF791FC2A20FFF7ADFCD7
:1011600004F00300304305F0010140EA810A5146D2
:101170002A20FFF783FCBDE8F087000008B54FF494
:10118000C06000F0D7F934208DF8000000208DF801
:1011900001008DF8020001208DF80300684600F080
:1011A000CEF908BD08B54FF48060ADF800001820F6
:1011B0008DF8030003208DF8020069465F4800F0B7
:1011C00015FB4FF40060ADF8000004208DF803001B
:1011D00069465A4800F00AFB08BD10B500F029F92D
:1011E0000121084600F0BEFD01211C2000F0BAFDDF
:1011F0000121E02000F0B6FD0121080200F0B2FD5F
:101200000121880300F0AEFD0121C80400F0B7FD04
:101210000121080500F0B3FD10BD10B5FFF7DDFF9B
:10122000FFF7C0FFFFF7AAFF10BD1FB504464FF43C
:10123000E13000900020ADF80400ADF80600ADF8F4
:101240000800ADF80C000C20ADF80A0069462046F5
:1012500000F02FFE012240F22551204600F0C1FE91
:10126000012240F22771204600F0BBFE01212046FA
:1012700000F0ABFE1FBD2DE9F04107460D461646B6
:1012800000240CE000BF4021384600F079FF002820
:10129000F9D0295D384600F005FF601C84B2B442E5
:1012A000F0DBBDE8F08110B540F22551244800F094
:1012B0007DFF60B3224800F0F9FEC4B2812C02D158
:1012C0000120204908701F480078022816D100200C
:1012D0001C490870502C06D102201B4908700020C0
:1012E0001A4908800AE0522C03D1012016490870DF
:1012F00004E0552C02D101201349087011480078F0
:10130000012804D10F480078401C0E49087040F2B3
:1013100027710B4800F04AFF28B1002240F22771E4
:10132000074800F05EFE10BD0948006820B108487B
:101330000068401E06490860704700000010014028
:10134000004C004024000020130000201C0000205E
:10135000000000200CB50020019000906C4800684F
:1013600040F480306A49086000BF6948006800F4B2
:10137000003000900198401C0190009818B9019825
:10138000B0F5A06FF1D16248006800F4003010B1F0
:101390000120009001E0002000900098012843D136
:1013A0005C48006840F010005A4908600846006830
:1013B00020F0030008600846006840F00200086062
:1013C00053484068524948600846406848600846AB
:1013D000406840F4806048600846406820F47C1013
:1013E00048600846406840F4E810486008460068D5
:1013F00040F08070086000BF4548006800F0007051
:101400000028F9D04248406820F003004049486075
:101410000846406840F00200486000BF3C48406811
:1014200000F00C000828F9D10CBD10B5FFF792FFB1
:1014300010BD10B53648006840F00100344908601E
:101440000846406834490840314948600846006809
:10145000324908402E4908600846006820F4802080
:1014600008600846406820F4FE0048604FF41F0002
:101470008860FFF7DAFF4FF000602949086010BD6F
:1014800010B5002100200022214B5B6803F00C0105
:1014900021B1042906D0082928D107E0214B224C8C
:1014A000236027E01F4B204C236023E0184B5B6830
:1014B00003F47010164B5B6803F48032022303EBD5
:1014C000904022B9194B4343174C23600DE0104B59
:1014D0005B6803F4003323B1144B4343124C236085
:1014E00003E0104B4343104C236003E00D4B0E4CC4
:1014F000236000BF00BF064B5B68C3F303130C4CB3
:10150000E15C094B1B68CB40074C236010BD000019
:1015100000100240002002400000FFF8FFFFF6FE2E
:1015200008ED00E000127A002800002000093D00CC
:101530002C00002031490143314A1160704770B5D9
:10154000002100230F22C47804B32D4C246804F436
:10155000E064C4F5E064210AC1F10403CA404478A0
:1015600004FA03F18478144021430901254C0678DC
:10157000A155047804F01F050124AC4005786D11D5
:10158000AD0005F1E025C5F8004109E0047804F05C
:101590001F050124AC401C4D0678761145F8264005
:1015A00070BD1A4A0A400243154B1B1F1A60704750
:1015B00039B1134A121D12680243114B1B1D1A60E8
:1015C00006E00F4A121D126882430D4B1B1D1A6064
:1015D0007047042808D14FF0E021096941F0040167
:1015E0004FF0E022116107E04FF0E021096921F09E
:1015F00004014FF0E0221161704700000000FA057D
:101600000CED00E000E400E080E100E080FFFF1F5F
:10161000002044490860091D0860091D0860091D73
:10162000086041483F4914310860704700213D4936
:101630008279002A3AD00A46126803689A430B4618
:101640001A600A1D126803689A430B1D1A6002791A
:1016500011440A6803681A430A60324A0832126861
:1016600003689A432F4B08331A601A1D12680368E7
:101670009A432C4B0C331A604279102A0ED11A1F50
:10168000126803681A43274B08331A601A1D126840
:1016900003681A43234B0C331A600DE02149427949
:1016A00011440A6803681A430A6005E0027911448C
:1016B0000A6803689A430A6070470021016001715B
:1016C0000C21417100218171704716491031096860
:1016D0000143144A10321160704701460020114A3C
:1016E000143212680A400AB1012000E0002070475D
:1016F0000C49143108607047014600200022094B54
:101700001B6803EA0102074B14331B680B4013B13B
:101710000AB1012000E0002070470249143108603E
:101720007047000000040140FFFF0F0010B50446A1
:10173000CC48844208D10121042000F02DFB002177
:10174000042000F029FB46E0C748844208D101216B
:10175000082000F021FB0021082000F01DFB3AE0EA
:10176000C248844208D10121102000F015FB00215D
:10177000102000F011FB2EE0BD48844208D1012169
:10178000202000F009FB0021202000F005FB22E0D2
:10179000B848844208D10121402000F0FDFA002120
:1017A000402000F0F9FA16E0B348844208D1012144
:1017B000802000F0F1FA0021802000F0EDFA0AE02C
:1017C000AE48844207D10121801500F0E5FA0021DE
:1017D000A01500F0E1FA10BD10B50121084600F097
:1017E000DBFA0021012000F0D7FA10BD2DE9F0410D
:1017F000024600250026002000230024002791F83F
:1018000003C00CF00F0591F803C00CF0100CBCF1F4
:10181000000F03D091F802C04CEA050591F800C012
:10182000BCF1000F31D0146800202BE04FF0010C08
:101830000CFA00F3B1F800C00CEA03069E4220D176
:1018400083004FF00F0C0CFA03F7BC4305FA03FCBE
:101850004CEA040491F803C0BCF1280F06D14FF004
:10186000010C0CFA00FCC2F814C00AE091F803C0A5
:10187000BCF1480F05D14FF0010C0CFA00FCC2F886
:1018800010C0401C0828D1D31460B1F800C0BCF1CE
:10189000FF0F34DD546800202EE000F1080C4FF0FB
:1018A000010808FA0CF3B1F800C00CEA03069E42E6
:1018B00021D183004FF00F0C0CFA03F7BC4305FA5B
:1018C00003FC4CEA040491F803C0BCF1280F05D1D5
:1018D00000F1080C08FA0CF8C2F8148091F803C063
:1018E000BCF1480F07D100F1080C4FF0010808FACD
:1018F0000CF8C2F81080401C0828CED35460BDE814
:10190000F0814FF6FF710180022181700421C170C6
:1019100070470246002093680B400BB1012000E0A5
:10192000002070470146886880B270470246002058
:10193000D3680B400BB1012000E000207047014646
:10194000C86880B2704701617047416170470AB151
:10195000016100E041617047C16070474FF480321F
:101960000A438261816182618269826970470246AD
:101970000020434B18684FF68073184040EA02106D
:1019800008433F4B186070473E49C8617047F0B547
:101990000A46002300240021002500F00046B6F18D
:1019A000004F02D1364EF16901E0354E7168C0F347
:1019B000034583B200F44016B6F5401F08D121F06C
:1019C00070612F4E766826F070662D4F7E6012E0B3
:1019D00000F48016B6F5801F06D1032606FA05F43A
:1019E000A14341F0706106E0460D360103FA06F6A8
:1019F000B14341F0706122B1460D360103FA06F69B
:101A0000314300F00046B6F1004F02D11C4EF161A7
:101A100001E01B4E7160F0BD30B500228B071C0F3A
:101A20000F2303FA04F2164B08338C1053F82430BA
:101A30009343134C08348D1044F8253023468C1002
:101A400053F824308C07240F00FA04F423430C4C81
:101A500008348D1044F8253030BD0A49DC31086067
:101A60007047000000080140000C014000100140D8
:101A70000014014000180140001C014000200140FA
:101A80000000014000002042DF48006840F00100F3
:101A9000DD49086008464068DC490840DA4948608A
:101AA00008460068DA490840D749086008460068D7
:101AB00020F4802008600846406820F4FE0048605A
:101AC0004FF41F0088607047CF49096821F48031C6
:101AD000CD4A11601146096821F480211160B0F5EA
:101AE000803F03D0B0F5802F0ED106E0C6490968CB
:101AF00041F48031C44A116007E0C349096841F4E8
:101B0000A021C14A116000E000BF00BF704710B5BE
:101B100001460022002300204A11012A02D1BA4CBA
:101B2000236806E0022A02D1B74C236A01E0B64CD2
:101B3000636A01F01F02012494401C400CB1012093
:101B400000E0002010BD38B50020009000240025E2
:101B500000BF3120FFF7DBFF05460098401C0090D6
:101B60000098B0F5A06F01D0002DF2D03120FFF722
:101B7000CEFF08B1012400E00024204638BD014614
:101B80000020A14A106820F0F80040EAC10010606F
:101B90007047A04908607047024600209A4B586879
:101BA00020F47C1042EA01031843974B58607047B9
:101BB00098490866704701460020934A506820F013
:101BC00003000843506070478F48406800F00C00E5
:101BD0007047014600208C4A506820F0F00008430E
:101BE0005060704701460020874A506820F4E0604A
:101BF00008435060704701460020834A506820F433
:101C0000605040EAC1005060704729B17E4A527A64
:101C100002437D4B5A7204E07B4A527A82437A4BEC
:101C20005A7270477B49D8310860704701460020DE
:101C3000754A506820F440400843506070470021C6
:101C4000714A20321170704A82F82010012802D0A7
:101C500004280AD104E001216B4A2032117005E00A
:101C60000521694A2032117000E000BF00BF7047B3
:101C70006949086070476449096A0143624A116210
:101C80007047654944390860704730B5002100222B
:101C9000002400235C4D6D6805F00C0121B104297E
:101CA00005D0082923D105E05C4D056022E05B4D9D
:101CB00005601FE0544D6D6805F47012524D6D685B
:101CC00005F48034022505EB92421CB9544D55436E
:101CD00005600BE04C4D6D6805F400351DB1504DAD
:101CE0005543056002E04D4D5543056002E04B4D04
:101CF000056000BF00BF444D6D6805F0F0010909A3
:101D0000484D6B5C0568DD4045603F4D6D6805F4EE
:101D1000E061090A434D6B5C4568DD4085603A4DE2
:101D20006D6805F46051C90A3E4D6B5C4568DD4045
:101D3000C560354D6D6805F44041890B3A4D6B5CCB
:101D4000C568B5FBF3F5056130BD29B12E4A52696E
:101D500002432D4B5A6104E02B4A526982432A4BBD
:101D60005A61704729B1284A92690243264B9A6109
:101D700004E0254A92698243234B9A61704729B156
:101D8000214AD2690243204BDA6104E01E4AD2693B
:101D900082431D4BDA61704729B11B4AD268024366
:101DA000194BDA6004E0184AD2688243164BDA60B5
:101DB000704729B1144A12690243134B1A6104E0B7
:101DC000114A12698243104B1A6170471249403917
:101DD000086070470F49C86470470B49C871704765
:101DE0000948406A40F080700749486270470146E0
:101DF0000020054A92680A400AB1012000E0002054
:101E00007047014988727047001002400000FFF8D7
:101E1000FFFFF6FE000042428004424200127A00B8
:101E200000093D003C0000204C00002010B5044695
:101E3000FB48844209D101218803FFF7ADFF00214F
:101E40004FF48040FFF7A8FF32E0F648844209D102
:101E500001214804FFF7ADFF00214FF40030FFF7E8
:101E6000A8FF25E0F048844209D101218804FFF74A
:101E7000A0FF00214FF48020FFF79BFF18E0EB4804
:101E8000844209D10121C804FFF793FF00214FF4D8
:101E90000020FFF78EFF0BE0E548844208D10121C6
:101EA0000805FFF786FF00214FF48010FFF781FF40
:101EB00010BD2DE9F04786B005460E460024A24627
:101EC00000BFA1460027B08900B100BF2F462C8A71
:101ED0004CF6FF700440F08804432C82AC894EF627
:101EE000F3100440B08831890843718908430443E2
:101EF000AC81AC8A4FF6FF400440B0890443AC8209
:101F000001A8FFF7C2FEC648874202D1DDF810A043
:101F100001E0DDF80CA0A88900F4004040B10AEB14
:101F2000CA0000EB0A1031684900B0FBF1F807E085
:101F30000AEBCA0000EB0A1031688900B0FBF1F827
:101F40006420B8FBF0F004012009642101FB108932
:101F5000A88900F4004040B1322000EBC900B0FB7A
:101F6000F1F000F00700044308E0322000EB091014
:101F70006421B0FBF1F000F00F0004432C8106B0A7
:101F8000BDE8F0874FF41651016000218180C180C7
:101F900001810C21418100218181704710B50246E9
:101FA0000020108A4FF2FF0318400B884C8823430F
:101FB0008C882343CC8823431843108210BD002112
:101FC000018041808180C180704721B1828942F4C3
:101FD0000052828104E082894DF6FF731A408281AB
:101FE0007047F0B50346002400260025002040F687
:101FF0006A17B94200D100BF1846C1F3421401F07C
:102000001F06012707FA06F5012C01D10C3004E068
:10201000022C01D1103000E014301AB107682F43B0
:10202000076002E00768AF430760F0BD1AB1838A1A
:102030000B43838202E0838A8B4383827047028A48
:102040004FF6F0731A400282028A0A4302827047F6
:1020500082894FF2FF731A40828182890A4382810A
:10206000704721B1828942F00202828104E08289B4
:102070004FF6FD731A4082817047028A4FF6DF7374
:102080001A400282028A0A430282704721B1028A00
:1020900042F48042028204E0028A4BF6FF731A4047
:1020A00002827047C1F30802828070470146888827
:1020B000C0F308007047818941F0010181817047B8
:1020C000028BD2B20283028B42EA01220283704762
:1020D000028B02F47F420283028B0A430283704721
:1020E00021B1828A42F02002828204E0828A4FF685
:1020F000DF731A408282704721B1828A42F0100257
:10210000828204E0828A4FF6EF731A40828270471F
:1021100021B1828A42F00802828204E0828A4FF66C
:10212000F7731A408282704721B1828942F40042DB
:10213000828103E08289C2F30E028281704721B15D
:10214000828A42F40062828204E0828A4FF2FF7344
:102150001A4082827047828A4FF6FB731A4082824D
:10216000828A0A438282704721B1828A42F0020247
:10217000828204E0828A4FF6FD731A4082827047A1
:1021800002460020B1F5007F00D100BF13880B404C
:102190000BB1012000E00020704701F40072B2F59D
:1021A000007F00D100BFCA430280704770B502466D
:1021B000002400230025002040F66A16B14200D119
:1021C00000BFC1F3421501F01F03012606FA03F315
:1021D000012D02D19689334006E0022D02D1168AE4
:1021E000334001E0968A33400C12012606FA04F4CB
:1021F0001688344013B10CB1012000E0002070BDFE
:1022000010B50022002340F66A14A14200D100BF9D
:102210000A1201249440A3B2DC43048010BD0000E4
:10222000003801400044004000480040004C00409D
:10223000005000402DE9FE4F804681EA0300C00FA8
:102240000C46009021F0004123F00045B8EB02005D
:10225000A94105D24046214690461C460B460246FF
:1022600023F00040104347D0270DC7F30A00C3F303
:102270000A510290401A019040286BDAC3F3130010
:1022800040F4801B0098924620B10023D2EB030A51
:1022900063EB0B0B01985946C0F14002504600F029
:1022A0009FF906460D4650465946019A00F0A7F997
:1022B00010EB08006141002487EA115284EAE773B9
:1022C0001A4340D0009A62B3019A012A4FEA07529A
:1022D00015DC001B61EB02014FF0004202EA0752DD
:1022E000CDE90042001C41F5801132462B4600F03A
:1022F000A7F903B0BDE8F08F40462146F9E7001B7F
:1023000061EB0201001C41F5801300185B412018AD
:10231000A2F5001747EB030140EAD570B6196D41ED
:1023200011E06D084FEA360645EAC0754FEA0752DC
:10233000001B61EB0201001C41F5801149084FEAC6
:1023400030000019514132462B4603B0BDE8F04F32
:1023500000F067B90098012240000023D0EB020290
:1023600063EBE073009821464FEAE074B8EB00009D
:1023700061EB0401E9E783F000435BE781F0004192
:1023800058E72DE9FE4F81EA030404F0004421F0F0
:10239000004100944FF0000B23F0004350EA010489
:1023A0005ED052EA03045BD0C3F30A54C1F30A556A
:1023B0002C44A4F2F3340194A0FB0254C1F31301A2
:1023C00041F48011C3F3130343F4801301FB02446F
:1023D00000FB034E840A970A44EA815447EA835774
:1023E000A4FB076802958D0A05FB07854FEA932C2D
:1023F00004FB0C542705029D4FEA065847EA16379E
:10240000B5EB08056EEB070C870E920E47EA8117B5
:1024100042EA8312A7FB0201B6EB0B0164EB000456
:102420002B0D43EA0C335E1844EB1C50DA46514640
:10243000E7FB0201C5F313044FEA0B3343EA1453DD
:102440004FEA0432019C43EA0603A4F10C0402940F
:10245000009CCDE900B400F0F3F803B0BDE8F08FC4
:1024600000200146F9E72DE9F04D81EA030404F06C
:10247000004B21F0004514464FF0000A23F00041C4
:1024800050EA050220D054EA01021DD0C5F30A57D4
:102490000246C5F31303C1F31300C1F30A5640F417
:1024A000801543F48013A7EB0608101BD64608F2EC
:1024B000FD3873EB050002D308F1010801E0921822
:1024C0005B41B8F1000F03DA00200146BDE8F08D52
:1024D00000204FF48011064684460EE0171B73EB74
:1024E000050705D3121B63EB050306434CEA010CF9
:1024F00049084FEA300092185B4150EA0107EDD1DC
:1025000052EA030012D082EA040083EA050108437C
:1025100005D0101BAB4106D20122002306E00022A9
:102520004FF0004302E06FF0010253101AEB060077
:102530004CEB085110EB0A0041EB0B01BDE8F04DEC
:1025400000F06FB80EB5C10F80EAE0700844CA070A
:10255000002140F233438DE80E000A460B4600F09E
:102560006FF803B000BD0EB540F233410291002177
:10257000CDE900110A460B4600F062F803B000BD39
:1025800030B5041E71F1000404DB4FF000444042FA
:1025900064EB0101141E73F1000405DB1C464FF0CF
:1025A0000043524263EB04038B4208BF824230BDBA
:1025B00030B5041E71F1000404DB4FF000444042CA
:1025C00064EB0101141E73F1000405DB1C464FF09F
:1025D0000043524263EB0403994208BF904230BD6E
:1025E000202A04DB203A00FA02F1002070479140D3
:1025F000C2F1200320FA03F3194390407047202AC8
:1026000006DBCB17203A41FA02F043EAE07306E01A
:1026100041FA02F3D040C2F120029140084319462A
:10262000704710B5141E73F1000408DA401C41F124
:10263000000192185B411A4301D120F0010010BD46
:102640002DE9F04D92469B4611B1B1FA81F202E0BC
:10265000B0FA80F220329046FFF7C2FF04460F46E0
:1026600040EA0A0041EA0B0153465A46084313D098
:10267000114653EA010019D0C8F14002504600F05B
:102680003FF805460E46504659464246FFF7A8FF1A
:10269000084305D0012004E020463946BDE8F08D0E
:1026A0000020054346EAE0762C4337430A98630549
:1026B000E40AA0EB08000022FD0A44EA47540A306D
:1026C00002D500200146E9E7010510196941DDE95D
:1026D000084500196941BDE8F04DA2E7064C074DD9
:1026E00006E0E06840F0010394E8070098471034E2
:1026F000AC42F6D3FDF720FDC0270008E027000814
:10270000202A04DB203A21FA02F00021704721FA46
:1027100002F3D040C2F120029140084319467047AD
:1027200002E008C8121F08C1002AFAD1704770479A
:10273000002001E001C1121F002AFBD170471100E7
:102740001246173F185019031A78320029502C7876
:10275000427F4D0963E064FF65006600670013F087
:102760000D810FC51411227F23032440253026A19B
:102770002B9E6BAA13FF900891019203930094B0D3
:10278000959D96139716987B99919A1E9B089C206D
:102790009E81A606A765A865A980AA807E0C7F16E3
:1027A000802A814E8261836F847B8586868E87979F
:1027B00088A489AF8AC58BD78CE88D200C500EF584
:1027C000E02700080000002050000000202700083B
:1027D0003028000850000020280900003027000899
:1027E00000000000370000000700000000000000AB
:1027F00000000000000000000000000000000000D9
:10280000000000000000000000A24A0400000000D8
:102810000000000001020304060708090000000090
:102820000102030401020304060708090204060862
:0400000508000131BD
:00000001FF
