:020000040800F2
:10000000D00700204901000891020008930200086F
:10001000970200089B0200089F02000800000000F1
:10002000000000000000000000000000A302000823
:10003000A502000800000000A7020008A9020008AD
:100040006301000863010008630100086301000800
:1000500063010008630100086301000863010008F0
:1000600063010008630100086301000841220008E1
:1000700063010008630100086301000863010008D0
:1000800063010008630100086301000863010008C0
:1000900063010008630100086301000863010008B0
:1000A00063010008630100086301000863010008A0
:1000B000CB250008C1260008630100086301000881
:1000C0006301000863010008630100086301000880
:1000D0006301000863010008630100086301000870
:1000E0006301000863010008630100086301000860
:1000F0006301000863010008630100086301000850
:10010000630100086301000817220008630100086A
:10011000834A0008B1020008630100086301000877
:10012000630100086301000863010008630100081F
:10013000DFF810D007F076FC004800476D0100089A
:10014000AFF30080D00700200648804706480047EC
:10015000FEE7FEE7FEE7FEE7FEE7FEE7FEE7FEE777
:10016000FEE7FEE7DB4F00083101000804F043FC26
:1001700000F0B4F802F0F6F902F03CF902F091FB5D
:1001800002F038FA01F0BAFF3A4804F03CFC3A4970
:10019000B1F1807F01D301201DE021F07F40401E9E
:1001A0004FF0E022506150170F22002807DA1307A2
:1001B0001D0E324B00F00F04241F1D5503E01307E2
:1001C0001C0E2F4B1C5400BF00204FF0E02290610A
:1001D00007201061002008B100BFFEE704F01BF902
:1001E00000F02DF903F0FAFE04F007FE00F099F993
:1001F0001BE001F0EDFE23480078102813D1002009
:100200002049087001202049087000201F4908700B
:1002100000220121880706F0CAFD00214FF080402E
:1002200006F0AAFD02E000F0A6FBE2E700BF1FE037
:1002300001F0CEFE04F0F1FD14480078052813D239
:10024000DFE800F00306090C0F0003F0ADF90CE045
:1002500003F0E5FE09E003F0D6F906E003F03EFC0A
:1002600003E004F00BF900E000BF00BF00F083FBE7
:10027000DEE70000004C00404019010018ED00E0EE
:1002800000E400E0A2010020A3010020A50100205D
:10029000704700BFFEE700BFFEE700BFFEE700BFFC
:1002A000FEE770477047704710B504F0F8FD10BDC9
:1002B00010B540F22551084807F0FCF940F22771CB
:1002C000054807F0F7F928B1002240F227710248EB
:1002D00007F00BF910BD00000050004008B540F6D3
:1002E000FF70ADF8000010208DF8030003208DF89A
:1002F00002006946FB4805F0EFFD4FF47040ADF891
:10030000000048208DF803006946F64805F0E4FD3A
:100310000121080206F09CF808BD08B5FF20ADF8E1
:10032000000004208DF803006946EE4805F0D4FD76
:100330000121080206F08CF808BD10B5FFF7EDFFAB
:100340004FF48071E74805F076FE4FF40071E54800
:1003500005F06FFE4FF48061E24805F06AFE01206F
:1003600004F041FDDF4805F053FE00F080044FF437
:100370008061DC4805F05FFEFFF7B0FF204610BD4E
:1003800010B5044600BFFFF7D8FF0028FBD14FF49B
:100390008071D44805F04FFE4FF40071D14805F04C
:1003A0004AFE4FF48061CF4805F045FE012004F07D
:1003B0001AFDCC48C06800F47F402043C949C8609A
:1003C000012004F010FD4FF48061C64805F031FEB5
:1003D000012004F008FD4FF48061C24805F02BFEB7
:1003E00010BD10B5044600BFFFF7A7FF0028FBD1E2
:1003F0004FF48071BB4805F01CFE4FF40071B94802
:1004000005F019FE4FF48061B64805F014FEB548BA
:10041000C06800F47F402043B249C860012004F066
:10042000E2FC4FF48061AF4805F003FE012004F0C8
:10043000DAFC4FF48061AB4805F0FDFD10BD10B54E
:100440004FF40061A74805F0F6FD032004F0CBFC53
:100450004FF40061A34805F0ECFD032004F0C3FC59
:100460003420FFF78DFF052004F0BDFC3020FFF79E
:1004700087FF052004F0B7FC0C20FFF781FF052063
:1004800004F0B1FC0120FFF77BFF052004F0ABFC7A
:1004900010BD70B504460D46012C01D180240AE040
:1004A000022C01D1902406E0032C01D1882402E023
:1004B000042C00D198246019C6B23046FFF760FFC3
:1004C00070BD10B50820FFF75BFF4FF4C87004F053
:1004D0008AFC0C20FFF754FF4FF4C87004F083FC33
:1004E0000820FFF74DFF4FF4C87004F07CFC0C208F
:1004F000FFF746FF4FF4C87004F075FC0820FFF7C3
:100500003FFFC82004F06FFC0C20FFF739FF0520E7
:1005100004F069FC0120FFF733FF052004F063FCC1
:1005200010BD10B53420FFF72BFF052004F05BFC55
:100530003020FFF725FF052004F055FC0120FFF7D0
:100540001FFF052004F04FFC10BD10B5FFF7E9FFB9
:100550008020FFF715FF002406E004F13001C8B247
:10056000FFF73FFF601CC4B2102CF6DB9020FFF7B2
:1005700007FF002406E004F14001C8B2FFF731FF95
:10058000601CC4B2102CF6DB8820FFF7F9FE0024B3
:1005900006E004F15001C8B2FFF723FF601CC4B2AB
:1005A000102CF6DB9820FFF7EBFE002406E004F1A8
:1005B0006001C8B2FFF715FF601CC4B2102CF6DB57
:1005C00010BD70B505463420FFF7DAFE002416E0B2
:1005D00004F18001C8B2FFF7D3FE8020FFF7D0FE00
:1005E000002605E015F8010BFFF7FBFE701CC6B2F4
:1005F000102EF7DB012004F0F6FB601CC4B2202CA7
:10060000E6DB002416E004F18001C8B2FFF7B8FE73
:100610008820FFF7B5FE002605E015F8010BFFF76F
:10062000E0FE701CC6B2102EF7DB012004F0DBFBED
:10063000601CC4B2202CE6DB3620FFF7A1FE70BDA3
:1006400070B506463620FFF79BFE00251EE000240D
:1006500018E005F18001C8B2FFF792FE04F18001B5
:10066000C8B2FFF78DFE290101EB4401705CFFF772
:10067000B8FE290101EB4401491C705CFFF7B1FE93
:10068000601CC4B2082CE4DB681CC5B2202DDEDB84
:100690006020FFF775FE8820FFF772FE20251EE020
:1006A000002418E005F16001C8B2FFF769FE04F10B
:1006B0008801C8B2FFF764FE290101EB4401705CB8
:1006C000FFF78FFE290101EB4401491C705CFFF725
:1006D00088FE601CC4B2082CE4DB681CC5B2402D47
:1006E000DEDB70BD0020014010B5FFF716FE4FF4B1
:1006F0008071FE4805F09DFC4FF40071FB4805F049
:1007000098FC4FF48061F94805F095FC4FF4806146
:10071000F64805F08EFC012004F065FBF34805F077
:1007200077FCC4B2012004F05EFB4FF48061EF4817
:1007300005F081FCFFF7D2FD204610BD2DE9F04702
:1007400005460E463420FFF71BFE3620FFF718FE45
:100750001F2E02D837462C0908E01F2E06D93F2E3F
:1007600004D8A6F12007082000EB151404F00700B8
:10077000082101EB0010A8422ED904F0070001EB7C
:100780000010401BA0F1010807F18001C8B2FFF77B
:10079000F7FD04F18001C8B2FFF7F2FDFFF7A4FFF7
:1007A000FFF7A2FF8146FFF79FFF824607F1800116
:1007B000C8B2FFF7E5FD04F18001C8B2FFF7E0FD24
:1007C000012101FA08F141EA0901C8B2FFF709FE67
:1007D0005046FFF706FE2CE004F00700082101EB6D
:1007E0000010A5EB000807F18001C8B2FFF7C8FDB3
:1007F00004F18001C8B2FFF7C3FDFFF775FFFFF7F3
:1008000073FF8146FFF770FF824607F18001C8B28F
:10081000FFF7B6FD04F18001C8B2FFF7B1FD48460D
:10082000FFF7DFFD802141FA08F141EA0A00FFF7F6
:10083000D8FDBDE8F0872DE9F04705460E46342087
:10084000FFF79EFD3620FFF79BFD1F2E02D837468F
:100850002C0908E01F2E06D93F2E04D8A6F1200748
:10086000082000EB151404F00700082101EB00102C
:10087000A8422DD904F0070001EB0010401BA0F1A5
:10088000010807F18001C8B2FFF77AFD04F1800189
:10089000C8B2FFF775FDFFF727FFFFF725FF814679
:1008A000FFF722FF824607F18001C8B2FFF768FD1B
:1008B00004F18001C8B2FFF763FD012101FA08F1DC
:1008C00029EA0100FFF78DFD5046FFF78AFD2CE075
:1008D00004F00700082101EB0010A5EB000807F168
:1008E0008001C8B2FFF74CFD04F18001C8B2FFF7E8
:1008F00047FDFFF7F9FEFFF7F7FE8146FFF7F4FE2D
:10090000824607F18001C8B2FFF73AFD04F1800189
:10091000C8B2FFF735FD4846FFF763FD802141FA75
:1009200008F12AEA0100FFF75CFDBDE8F08770B529
:100930003420FFF725FD3620FFF722FD002417E0C5
:10094000002511E005F18001C8B2FFF719FD04F19F
:100950008001C8B2FFF714FD0020FFF742FD002020
:10096000FFF73FFD681CC5B2202DEBDB601CC4B255
:10097000102CE5DB70BD1FB5002003905C480078AB
:10098000062881F0CE82DFE810F006006F00D0006C
:1009900019063107810700210120FFF77AFD0020A9
:1009A000039009E053490398085C0090FFF719FD94
:1009B0000398401C80B2039003981028F2DB0021BA
:1009C0000220FFF766FD002003900AE0494810303E
:1009D0000399405C0090FFF704FD0398401C80B22F
:1009E000039003981028F1DB00210320FFF751FD4D
:1009F000002003900AE03F4820300399405C0090BB
:100A0000FFF7EFFC0398401C80B203900398102876
:100A1000F1DB00210420FFF73CFD3748007888B166
:100A2000002003900AE0334830300399405C009086
:100A3000FFF7D7FC0398401C80B20390039810285E
:100A4000F1DB0FE00020039009E02C490398085CDB
:100A50000090FFF7C6FC0398401C80B203900398F7
:100A60001028F2DB01F05EBA00210120FFF711FD32
:100A70000020039009E022490398085C0090FFF7EA
:100A8000B0FC0398401C80B2039003981028F2DB5E
:100A900000210220FFF7FDFC002003900AE0184827
:100AA00012300399405C0090FFF79BFC0398401CB8
:100AB00080B2039003981028F1DB00210320FFF798
:100AC000E8FC002003900AE00D4824300399405CC4
:100AD0000090FFF786FC0398401C80B203900398B7
:100AE0001028F1DB002104200CE000000020014070
:100AF000A301002010000020A4010020000000201D
:100B000050000020FFF7C5FC0020039009E0FE48DC
:100B10000399405C0090FFF764FC0398401C80B28E
:100B2000039003981028F2DB9CE7F848007800282F
:100B300072D000210120FFF7ACFC0020039009E0F7
:100B4000F3490398085C0090FFF74BFC0398401CA6
:100B500080B2039003981028F2DB00210220FFF7F7
:100B600098FC002003900AE0E94810300399405CAB
:100B70000090FFF736FC0398401C80B20390039866
:100B80000228F1DBE34800686421B0FBF1F030306B
:100B9000C0B20090FFF725FCDE4800680A21B0FBD8
:100BA000F1F0B0FBF1F201FB120030300090FFF7E2
:100BB00018FCD84800680A21B0FBF1F201FB1200D2
:100BC00030300090FFF70DFC7820FFF70AFCD24888
:100BD00000686421B0FBF1F03030C0B20090FFF744
:100BE00000FCCD4800680A21B0FBF1F0B0FBF1F247
:100BF00001FB120030300090FFF7F3FBC64800689D
:100C00000A21B0FBF1F201FB120030300090FFF737
:100C1000E8FB092003900BE090E0BD4810300399F9
:100C2000405C0090FFF7DDFB0398401C80B203900E
:100C300003981028F1DB00210320FFF72AFC002095
:100C400003900AE0B24820300399405C0090FFF71F
:100C5000C8FB0398401C80B2039003981028F1DB76
:100C600000210420FFF715FC002003900AE0A848AB
:100C700030300399405C0090FFF7B3FB0398401CB1
:100C800080B2039003980228F1DBA4480068642135
:100C9000B0FBF1F03030C0B20090FFF7A2FB9F48EC
:100CA00000680A21B0FBF1F0B0FBF1F201FB120089
:100CB00030300090FFF795FB984800680A21B0FBA0
:100CC000F1F201FB120030300090FFF78AFB782030
:100CD000FFF787FB924800686421B0FBF1F03030E9
:100CE000C0B20090FFF77DFB8D4800680A21B0FB81
:100CF000F1F0B0FBF1F201FB120030300090FFF791
:100D000070FB874800680A21B0FBF1F201FB12007A
:100D100030300090FFF765FB092003900AE07C4823
:100D200030300399405C0090FFF75BFB0398401C58
:100D300080B2039003981028F1DBFDE3002101202D
:100D4000FFF7A7FB0020039009E071490398085CB6
:100D50000090FFF746FB0398401C80B20390039875
:100D60001028F2DB00210220FFF793FB0020039004
:100D70000AE0674810300399405C0090FFF731FBB0
:100D80000398401C80B2039003980228F1DB654869
:100D9000007806287DD2DFE800F0034484D5FDFC0E
:100DA0002020FFF71EFB5B4800680A21B0FBF1F032
:100DB000B0FBF1F201FB120030300090FFF711FBA5
:100DC000544800680A21B0FBF1F201FB12003030F8
:100DD0000090FFF706FB7820FFF703FB4E48006802
:100DE0006421B0FBF1F03030C0B20090FFF7F9FAA7
:100DF000494800680A21B0FBF1F0B0FBF1F201FBB9
:100E0000120030300090FFF7ECFA434800680A21E6
:100E1000B0FBF1F201FB120030300090FFF7E1FA75
:100E20009AE13C4800686421B0FBF1F03030C0B278
:100E30000090FFF7D6FA2020FFF7D3FA3548006874
:100E40000A21B0FBF1F201FB120030300090FFF7F5
:100E5000C8FA7820FFF7C5FA2F4800686421B0FB74
:100E6000F1F03030C0B20090FFF7BBFA2A480068BA
:100E70000A21B0FBF1F0B0FBF1F201FB12003030BF
:100E80000090FFF7AEFA244800680A21B0FBF1F2A7
:100E900000E019E101FB120030300090FFF7A1FAE9
:100EA0005AE11C4800686421B0FBF1F03030C0B258
:100EB0000090FFF796FA174800680A21B0FBF1F09E
:100EC000B0FBF1F201FB120030300090FFF789FA1D
:100ED0002020FFF786FA7820FFF783FA0E48006893
:100EE0006421B0FBF1F03030C0B20090FFF779FA26
:100EF000094800680A21B0FBF1F0B0FBF1F201FBF8
:100F00001200303000900FE086000020A401002085
:100F100098000020A8010020AC010020B0010020B2
:100F2000B4010020C8010020FFF75BFAFE4800680A
:100F30000A21B0FBF1F201FB120030300090FFF704
:100F400050FA09E1F94800686421B0FBF1F0303053
:100F5000C0B20090FFF745FAF44800680A21B0FBE0
:100F6000F1F0B0FBF1F201FB120030300090FFF71E
:100F700038FAEE4800680A21B0FBF1F201FB1200DA
:100F800030300090FFF72DFA7820FFF72AFA202062
:100F900001E059E01AE0FFF724FAE34800680A216B
:100FA000B0FBF1F0B0FBF1F201FB12003030009029
:100FB000FFF717FADC4800680A21B0FBF1F201FBE9
:100FC000120030300090FFF70CFAC5E0D7480068F7
:100FD0006421B0FBF1F03030C0B20090FFF701FAAD
:100FE000D24800680A21B0FBF1F0B0FBF1F201FB3E
:100FF000120030300090FFF7F4F9CC4800680A2165
:10100000B0FBF1F201FB120030300090FFF7E9F97C
:101010007820FFF7E6F9C44800686421B0FBF1F0DE
:101020003030C0B20090FFF7DCF92020FFF7D9F98B
:10103000BD4800680A21B0FBF1F201FB120030301C
:101040000090FFF7CEF987E0B84800686421B0FB54
:10105000F1F03030C0B20090FFF7C3F9B348006838
:101060000A21B0FBF1F0B0FBF1F201FB12003030CD
:101070000090FFF7B6F9AD4800680A21B0FBF1F225
:1010800001FB120030300090FFF7ABF97820FFF73A
:10109000A8F9A54800686421B0FBF1F03030C0B277
:1010A0000090FFF79EF9A04800680A21B0FBF1F01C
:1010B000B0FBF1F201FB120030300090FFF791F924
:1010C0002020FFF78EF947E0984800686421B0FBC4
:1010D000F1F03030C0B20090FFF783F99348006818
:1010E0000A21B0FBF1F0B0FBF1F201FB120030304D
:1010F0000090FFF776F98D4800680A21B0FBF1F205
:1011000001FB120030300090FFF76BF97820FFF7F9
:1011100068F9854800686421B0FBF1F03030C0B256
:101120000090FFF75EF9804800680A21B0FBF1F0FB
:10113000B0FBF1F201FB120030300090FFF751F9E3
:10114000794800680A21B0FBF1F201FB120030304F
:101150000090FFF746F900BF00BF0920039009E0A7
:1011600073480399405C0090FFF73BF90398401CDB
:1011700080B2039003981028F2DB00210320FFF7D0
:1011800088F9002003900AE0694810300399405C18
:101190000090FFF726F90398401C80B20390039853
:1011A0001028F1DB00210420FFF773F900200390E1
:1011B0000AE05F4820300399405C0090FFF711F986
:1011C0000398401C80B2039003980228F1DB594831
:1011D0000078801F06287DD2DFE800F0034484D227
:1011E000FDFC2020FFF7FDF8534800680A21B0FB02
:1011F000F1F0B0FBF1F201FB120030300090FFF78C
:10120000F0F84D4800680A21B0FBF1F201FB120032
:1012100030300090FFF7E5F87820FFF7E2F8474814
:1012200000686421B0FBF1F03030C0B20090FFF7ED
:10123000D8F8424800680A21B0FBF1F0B0FBF1F2A7
:1012400001FB120030300090FFF7CBF83B480068FC
:101250000A21B0FBF1F201FB120030300090FFF7E1
:10126000C0F899E1344800686421B0FBF1F03030F7
:10127000C0B20090FFF7B5F82020FFF7B2F82E4873
:1012800000680A21B0FBF1F201FB1200303000903F
:10129000FFF7A7F87820FFF7A4F828480068642132
:1012A000B0FBF1F03030C0B20090FFF79AF823485D
:1012B00000680A21B0FBF1F0B0FBF1F201FB120073
:1012C00030300090FFF78DF81C4800680A21B0FB11
:1012D000F1F200E016E101FB120030300090FFF760
:1012E00080F859E1144800686421B0FBF1F0303017
:1012F000C0B20090FFF775F80F4800680A21B0FBF4
:10130000F1F0B0FBF1F201FB120030300090FFF77A
:1013100068F82020FFF765F87820FFF762F80748A3
:10132000006864210CE00000AC010020A80100204E
:10133000A8000020C8010020B0010020B401002056
:10134000B0FBF1F03030C0B20090FFF74AF8FD4832
:1013500000680A21B0FBF1F0B0FBF1F201FB1200D2
:1013600030300090FFF73DF8F64800680A21B0FBE6
:10137000F1F201FB120030300090FFF732F80BE180
:10138000F14800686421B0FBF1F03030C0B2009049
:10139000FFF727F8EC4800680A21B0FBF1F0B0FB3A
:1013A000F1F201FB120030300090FFF71AF8E64826
:1013B00000680A21B0FBF1F201FB1200303000900E
:1013C000FFF70FF87820FFF70CF82020FFF709F857
:1013D000DC4801E056E017E000680A21B0FBF1F0BC
:1013E000B0FBF1F201FB120030300090FEF7F9FF84
:1013F000D44800680A21B0FBF1F201FB1200303042
:101400000090FEF7EEFFC7E0CF4800686421B0FB14
:10141000F1F03030C0B20090FEF7E3FFCA48006838
:101420000A21B0FBF1F0B0FBF1F201FB1200303009
:101430000090FEF7D6FFC44800680A21B0FBF1F225
:1014400001FB120030300090FEF7CBFF7820FEF752
:10145000C8FFBC4800686421B0FBF1F03030C0B276
:101460000090FEF7BEFF2020FEF7BBFFB5480068E6
:101470000A21B0FBF1F201FB120030300090FEF7C0
:10148000B0FF89E0B04800686421B0FBF1F0303073
:10149000C0B20090FEF7A5FFAB4800680A21B0FB80
:1014A000F1F0B0FBF1F201FB120030300090FEF7DA
:1014B00098FFA54800680A21B0FBF1F201FB120079
:1014C00030300090FEF78DFF7820FEF78AFF9D48B0
:1014D00000686421B0FBF1F03030C0B20090FEF73C
:1014E00080FF984800680A21B0FBF1F0B0FBF1F2F0
:1014F00001FB120030300090FEF773FF2020FEF752
:1015000070FF49E0904800686421B0FBF1F0303092
:10151000C0B20090FEF765FF8B4800680A21B0FB5F
:10152000F1F0B0FBF1F201FB120030300090FEF759
:1015300058FF8548006800E03FE00A21B0FBF1F267
:1015400001FB120030300090FEF74BFF7820FEF7D1
:1015500048FF7C4800686421B0FBF1F03030C0B235
:101560000090FEF73EFF774800680A21B0FBF1F0DB
:10157000B0FBF1F201FB120030300090FEF731FFBA
:10158000704800680A21B0FBF1F201FB1200303014
:101590000090FEF726FF00BF00BF0920039009E07E
:1015A0006A480399405C0090FEF71BFF0398401CBB
:1015B00080B2039003981028F2DBF8E300210120A9
:1015C000FEF767FF0020039009E061490398085C7B
:1015D0000090FEF706FF0398401C80B2039003982A
:1015E0001028F2DB00210220FEF753FF00200390B9
:1015F0000AE0574810300399405C0090FEF7F1FE76
:101600000398401C80B2039003980228F1DB5148F4
:1016100000686421B0FBF1F03030C0B20090FEF7FA
:10162000E0FE4C4800680A21B0FBF1F0B0FBF1F29B
:1016300001FB120030300090FEF7D3FE45480068F1
:101640000A21B0FBF1F201FB120030300090FEF7EE
:10165000C8FE7820FEF7C5FE3F4800686421B0FB55
:10166000F1F03030C0B20090FEF7BBFE3A4800689F
:101670000A21B0FBF1F0B0FBF1F201FB12003030B7
:101680000090FEF7AEFE344800680A21B0FBF1F28C
:1016900001FB120030300090FEF7A3FE09200390FA
:1016A0000AE02B4810300399405C0090FEF799FE49
:1016B0000398401C80B2039003981028F1DB0021AE
:1016C0000320FEF7E6FE002003900AE020482030C9
:1016D0000399405C0090FEF784FE0398401C80B2A2
:1016E000039003980628F1DB1C4800680A21B0FB30
:1016F000F1F03030C0B20090FEF773FE174800687A
:101700000A21B0FBF1F201FB120030300090FEF72D
:1017100068FE082003900AE00D4820300399405CE1
:101720000090FEF75EFE0398401C80B20390039881
:101730001028F1DB00210420FEF7ABFE002003900F
:1017400018E00000B4010020B0010020C800002013
:10175000D8000020B8010020BC010020C0010020FA
:10176000FE480399405C0090FEF73BFE0398401C46
:1017700080B2039003980628F2DBF94800686421E0
:10178000B0FBF1F03030C0B20090FEF72AFE2E2000
:10179000FEF727FEF24800680A21B0FBF1F0B0FB2B
:1017A000F1F201FB120030300090FEF71AFEEC4817
:1017B00000680A21B0FBF1F201FB1200303000900A
:1017C000FEF70FFE5620FEF70CFE0B20039009E0FB
:1017D000E2480399405C0090FEF703FE0398401C2A
:1017E00080B2039003981028F2DB9BE3FEF799FE8A
:1017F000FFF79DF8002003903FE0DA49039851F885
:1018000020000521B0FBF1F0801C80B20290D64987
:10181000039851F820000521B0FBF1F0C0F13D0024
:1018200080B20190DDE90110FEF788FF02987F2861
:1018300004DADDE90110401CFEF780FF0298002861
:1018400005DD0298401E00900199FEF777FF019890
:101850007F2804DA0199491C0298FEF76FFF01986E
:10186000002806DD0198401E014600900298FEF710
:1018700065FF0398401C80B20390BC490398096837
:101880008842BAD30620BA4908704BE3B9480078B9
:1018900000287DD000210120FEF7FBFD00200390F1
:1018A00009E0B5490398085C0090FEF79AFD03989B
:1018B000401C80B2039003980428F2DBAF48006814
:1018C0004FF47A71B0FBF1F03030C0B20090FEF707
:1018D00088FDAA4800686421B0FBF1F00A21B0FB42
:1018E000F1F201FB120030300090FEF77AFDA348C0
:1018F00000680A21B0FBF1F0B0FBF1F201FB12002D
:1019000030300090FEF76DFD9C4800680A21B0FB66
:10191000F1F201FB120030300090FEF762FD08206A
:10192000039009E094490398085C0090FEF759FD84
:101930000398401C80B2039003980C28F2DB904877
:1019400000684FF47A71B0FBF1F03030C0B2009013
:10195000FEF747FD8A4800686421B0FBF1F00A21D8
:10196000B0FBF1F201FB120030300090FEF739FDC0
:10197000834800680A21B0FBF1F0B0FBF1F201FBF3
:10198000120030300090FEF72CFD7D48006800E02A
:101990000CE10A21B0FBF1F201FB120030300090A3
:1019A000FEF71FFD00210220FEF773FD00200390CB
:1019B0000AE0714810300399405C0090FEF711FD79
:1019C0000398401C80B2039003980428F1DB6D4813
:1019D00000680A21B0FBF1F018B92020FEF701FDE4
:1019E00009E0684800680A21B0FBF1F03030C0B26D
:1019F0000090FEF7F6FC634800680A21B0FBF1F2A4
:101A000001FB120030300090FEF7EBFC0620039043
:101A10000AE0594810300399405C0090FEF7E1FC61
:101A20000398401C80B2039003981028F1DB00213A
:101A30000320FEF72EFD002003900AE04E482030E0
:101A40000399405C0090FEF7CCFC0398401C80B2E8
:101A5000039003980328F1DB4B4800686421B0FB36
:101A6000F1F018B92020FEF7BCFC09E046480068F8
:101A70006421B0FBF1F03030C0B20090FEF7B1FC51
:101A8000414800680A21B0FBF1F0B0FBF1F201FB24
:101A9000120030300090FEF7A4FC3B4800680A2199
:101AA000B0FBF1F201FB120030300090FEF799FC20
:101AB000062003900AE0304820300399405C0090F3
:101AC000FEF78FFC0398401C80B2039003980B280C
:101AD000F1DB2E4801686420B1FBF0F018B920203A
:101AE000FEF77FFC09E0294801686420B1FBF0F0B3
:101AF0003030C0B20090FEF774FC244800680A2120
:101B0000B0FBF1F0B0FBF1F201FB120030300090BD
:101B1000FEF767FC1D4800680A21B0FBF1F201FBEB
:101B2000120030300090FEF75CFC0E2003900AE0BB
:101B3000114820300399405C0090FEF752FC039856
:101B4000401C80B2039003981028F1DB0021042090
:101B5000FEF79FFC0020039024E000000801002015
:101B6000C40100201403002064030020C0010020F1
:101B7000A3010020A4010020180100201C02002065
:101B80002002002024020020280200202C02002035
:101B9000EB480399405C0090FEF723FC0398401C3F
:101BA00080B2039003981028F2DBB9E100210120F4
:101BB000FEF76FFC002003900AE0E14930390398FA
:101BC000085C0090FEF70DFC0398401C80B2039067
:101BD00003980428F1DBDB48007801280CD1202091
:101BE000FEF7FFFB2020FEF7FCFB2020FEF7F9FBB1
:101BF0002020FEF7F6FB30E0D34800684FF47A71FE
:101C0000B0FBF1F03030C0B20090FEF7EAFBCE48F6
:101C100000686421B0FBF1F00A21B0FBF1F201FB96
:101C2000120030300090FEF7DCFBC74800680A2144
:101C3000B0FBF1F0B0FBF1F201FB1200303000908C
:101C4000FEF7CFFBC04800680A21B0FBF1F201FBB0
:101C5000120030300090FEF7C4FB082003900AE029
:101C6000B74930390398085C0090FEF7BAFB039837
:101C7000401C80B2039003980C28F1DBB148007837
:101C800002280CD12020FEF7ACFB2020FEF7A9FB98
:101C90002020FEF7A6FB2020FEF7A3FB30E0AB4898
:101CA00000684FF47A71B0FBF1F03030C0B20090B0
:101CB000FEF797FBA54800686421B0FBF1F00A210C
:101CC000B0FBF1F201FB120030300090FEF789FB0F
:101CD0009E4800680A21B0FBF1F0B0FBF1F201FB75
:101CE000120030300090FEF77CFB984800680A2113
:101CF000B0FBF1F201FB120030300090FEF771FBF7
:101D000000210220FEF7C5FB002003900AE08C486A
:101D100020380399405C0090FEF763FB0398401C59
:101D200080B2039003980428F1DB864800780328EA
:101D300006D12020FEF755FB2020FEF752FB1EE0C7
:101D4000834800680A21B0FBF1F018B92020FEF7A3
:101D500048FB09E07E4800680A21B0FBF1F0303012
:101D6000C0B20090FEF73DFB794800680A21B0FB45
:101D7000F1F201FB120030300090FEF732FB06203A
:101D800003900AE06E4820380399405C0090FEF70B
:101D900028FB0398401C80B2039003981028F1DBC5
:101DA00000210320FEF775FB002003900BE0B9E053
:101DB000634810380399405C0090FEF712FB0398CB
:101DC000401C80B2039003980328F1DB5D48007843
:101DD000042809D12020FEF704FB2020FEF701FB98
:101DE0002020FEF7FEFA2BE05A4800686421B0FB81
:101DF000F1F018B92020FEF7F4FA09E05548006820
:101E00006421B0FBF1F03030C0B20090FEF7E9FA87
:101E1000504800680A21B0FBF1F0B0FBF1F201FB81
:101E2000120030300090FEF7DCFA4A4800680A21C0
:101E3000B0FBF1F201FB120030300090FEF7D1FA56
:101E4000062003900AE03E4810380399405C009059
:101E5000FEF7C7FA0398401C80B2039003980B2842
:101E6000F1DB38480078052809D12020FEF7B9FABF
:101E70002020FEF7B6FA2020FEF7B3FA2BE0364812
:101E800000686421B0FBF1F018B92020FEF7A9FA30
:101E900009E0314800686421B0FBF1F03030C0B295
:101EA0000090FEF79EFA2C4800680A21B0FBF1F082
:101EB000B0FBF1F201FB120030300090FEF791FA16
:101EC000254800680A21B0FBF1F201FB1200303016
:101ED0000090FEF786FA0E2003900AE018481038AA
:101EE0000399405C0090FEF77CFA0398401C80B296
:101EF000039003981028F1DB00210420FEF7C9FAB3
:101F00000020039009E00E480399405C0090FEF722
:101F100068FA0398401C80B2039003981028F2DB03
:101F200000E000BF00BF1FBD10B50446072104201C
:101F3000FEF7AFFA04F13001C8B2FEF752FA10BD55
:101F400048010020C80100201C02002020020020BF
:101F500024020020280200202C0200202DE9F0415C
:101F60004FF4006700242FE04FF47066F61B3148F1
:101F700000684FF2FF01084030432E4908607F0897
:101F80002C480C3804F044F800F47040B0F5704F61
:101F900018DA4FF48058002512E026480C3804F077
:101FA00037F800EA080038B905EB84002249085CDC
:101FB00022490870BDE8F0814FEA4808681CC5B2A4
:101FC000042DEADB601CC4B2042CCDDB00BFF1E7BA
:101FD00010B5184800684FF2FF0108401549086025
:101FE00014480C3804F014F804461548007868B911
:101FF00004F47040B0F5704F08D201201049087009
:102000000A2002F0F0FEFFF7A9FF12E00C4800786A
:1020100001280BD104F47040B0F5704F06D10020B8
:102020000749087001200749087002E0012002F00A
:10203000DAFE10BD0C14014058010020A20100205E
:10204000A0010020A1010020002105E0002200E005
:10205000521C8242FCD3491C8142F7D3704708B519
:102060000121102004F0F4F93B20ADF8000000201D
:102070008DF803006946C74803F02EFF08BD0EB572
:102080000121082004F0F1F94720ADF800009B2061
:10209000ADF804000020ADF80600ADF80200694676
:1020A000BD4804F00DFB01221146BB4804F07FFE41
:1020B0000121B94804F060FE0EBD08B54FF4C060C0
:1020C00003F00CF80B208DF8000001208DF80100C2
:1020D0008DF802008DF80300684603F004F8322002
:1020E0008DF8000000208DF8010001208DF802001D
:1020F0008DF80300684602F0F6FF08BD10B5012117
:10210000084604F098F90121480204F0A1F9FFF70C
:10211000D4FFFFF7A4FFFFF7B2FFA04803F074FA63
:102120009F48A0490860A0484860002088600320BC
:10213000C8600020086180204861400088618000FC
:10214000C86120200862000248620020886293482B
:1021500003F0FCFA0121914803F023FB002093498E
:1021600008600120087148714FF4602088600020E9
:10217000C860032008748A484C3803F044F84FF4D0
:10218000404004F0C9F8072301220B2184484C3851
:1021900003F0D1F8072302220A2181484C3803F0CA
:1021A000CAF8072303220D217D484C3803F0C3F8F9
:1021B0007B484C3803F075F800BF79484C3803F081
:1021C00075F80028F9D176484C3803F079F800BF4B
:1021D00073484C3803F079F80028F9D10121704890
:1021E0004C3803F07CF8022003F029FB0122022185
:1021F0006A4803F0E2FA012169484C3803F06FF8AD
:10220000002167484C3803F035F8002164484C3809
:1022100003F025F810BD10B501215F4805F075F8F1
:1022200048B101215E484C3803F024F801215C4894
:102230004C3803F014F80121574805F077F810BD29
:102240002DE9F05F022003F0E6FA00287ED0564820
:1022500000885749086054484088564908605248E9
:10226000808855490860022003F0E9FA00214C48B3
:102270004C3802F0FFFF002149484C3802F0EFFFD4
:1022800000220121444804F092FD0021424804F05C
:1022900073FD47480088C0F30B00484908600846B2
:1022A000006805F02CFB82460022454B05F046FAFB
:1022B0008046444A444B05F0B3FA06464FF0663276
:1022C000424B05F03BFA044605F026FB4049086006
:1022D00038480088C0F30B003E4908600846006893
:1022E00005F00DFB82460022354B05F027FA8046AB
:1022F000344A354B05F094FA06464FF06632334BBC
:1023000005F01CFA044605F007FB334908602A482B
:102310000088C0F30B003149096808442F49086060
:102320002F480068401C2E490860084600680228B3
:1023300025DD2A4800680321B0FBF1F02749086039
:102340000846006805F0DBFA804600E020E0002245
:102350001B4B05F0F3F90646224A234B05F060FAC1
:1023600004460022214B05F0E9F9824605F0D4FA33
:102370001F49086000201A490860184908600122B6
:102380001146054804F013FD0121034804F0F4FC54
:10239000BDE8F09F00100140000C00400800024022
:1023A0004C240140B802002068010020A402002053
:1023B0007C010020800100208401002070010020A9
:1023C0000000F03F7B14AE47E17A444066660A4065
:1023D000DC01002074010020E001002078010020D1
:1023E000880100209A9999999999794000804040F4
:1023F000C401002000B58DB0012140F6480004F072
:1024000027F84FF41060ADF8300003208DF832004B
:1024100018208DF833000CA9FA4803F05DFD4FF445
:102420009050ADF8300003208DF8320018208DF860
:1024300033000CA9F34803F04FFD0121F24803F0EB
:102440001CFE40F2E730ADF828004720ADF824002C
:102450000020ADF82A00ADF826008DF82C0009A95F
:10246000EA4804F02DF97020ADF814004FF4FA702A
:10247000ADF81A000220ADF81C000120ADF81600DE
:102480000820ADF81E000420ADF818000020ADF8BB
:102490002000ADF8220005A9DC4804F04EF905A99A
:1024A000DA4804F08CF905A9D84804F0D5F90020E1
:1024B000ADF80400ADF80600ADF808009020ADF8C6
:1024C0000A000020ADF80C004FF40050ADF80E00EB
:1024D0004000ADF8100001A9CC4804F00DFC082123
:1024E000CA4804F079FD0821C84804F07EFD08219F
:1024F000C64804F087FD0121C44804F03DFD0121D8
:10250000C24804F039FC00220821C04804F048FE0B
:1025100000221146BD4804F034FE00221146BB489B
:1025200004F03EFE00220421B84804F02AFE4FF4D5
:102530007A71B64804F0B6FE0821B24803F07BFD7C
:102540000121B04803F077FD0221AE4803F073FD8E
:102550000421AC4803F06FFD0121AC4804F018FCE5
:102560000DB000BD1FB54FF4C06002F0B7FD0121F2
:10257000084603F07AFF41F61F40ADF8040042F22E
:102580000F70ADF808000020ADF80A00ADF80600A5
:1025900001A94FF0804004F093F81C208DF8000052
:1025A00000208DF8010001208DF802008DF8030055
:1025B000684602F098FD01221146900704F0F7FBEF
:1025C0000121880704F0D8FB1FBD10B50121880741
:1025D00004F09BFE48B18E490978481C00EBD0718D
:1025E0004910A0EB41018A4A11700121880704F0CB
:1025F0009DFE10BD00B589B00121022003F035FF1A
:102600000121082003F024FF0320ADF8200028203A
:102610008DF8230008A97F4803F05EFC03217D4864
:1026200003F009FD4FF6FF70ADF818004720ADF834
:1026300014000020ADF81A00ADF8160005A9764880
:1026400004F03EF80820ADF808000020ADF80A00BC
:102650000120ADF80C000020ADF80E00ADF8100020
:1026600002A96D4804F0BFFA0C20ADF80800002064
:10267000ADF80A000120ADF80C000020ADF80E0006
:10268000ADF8100002A9644804F0ADFA1D208DF8E1
:10269000040002208DF8050000208DF806000120BE
:1026A0008DF8070001A802F01EFD012218215A48EA
:1026B00004F07DFB0121584804F05EFB09B000BD29
:1026C00010B50821544804F020FEE0B10120534920
:1026D000086053480068012805D152480068401C32
:1026E000504908600FE04E48006802280BD14D4861
:1026F000006828B14B480068401E4A49086002E063
:102700000020484908601021434804F0FEFDE0B174
:1027100001204549086045480068012805D1444822
:102720000068401C424908600FE0404800680228E9
:102730000BD13F48006828B13D480068401E3C4925
:10274000086002E000203A490860364800688000CE
:102750004FF4A571B0FBF1F03649086034480068C9
:10276000C0004FF4A571B0FBF1F033490860334865
:102770000068032804D0052823D0062868D168E023
:102780002C4800682E490968884209D10022082196
:102790001E4804F005FD002211461C4804F0F1FC1F
:1027A0002548006827490968884209D10022114656
:1027B000164804F0F5FC00220421144804F0E1FC62
:1027C00069E01C48006820490968884209D1002254
:1027D00008210E4804F0E4FC002211460B4804F0E6
:1027E000D0FC1548006819490968884209D10022BF
:1027F0001146064804F0D4FC00220421034804F0EA
:10280000C0FC48E000180140C0001600002C014048
:10281000A4010020000C01400004004094010020AD
:10282000300200208C01002098010020340200209A
:1028300090010020B8010020BC010020EC01002024
:10284000A8010020AC0100200C0200201002002092
:1028500020E05B4800685B490968884209D1002292
:102860000821594804F09CFC00221146564804F007
:1028700088FC5648006856490968884209D10022F8
:102880001146514804F08CFC002204214E4804F00B
:1028900078FC00E000BF00BF18214E4804F046FD60
:1028A00010BD00B58DB00121042003F0DEFD012133
:1028B000092003F0CDFD4FF44070ADF83000182032
:1028C0008DF8330003208DF832000CA9424803F044
:1028D00003FB40F2E730ADF828004720ADF82400B4
:1028E0000020ADF82A00ADF8260009A93B4803F006
:1028F000E7FE7020ADF814000120ADF816000020AE
:10290000ADF81C0005A9354803F0A6FF7020ADF80E
:1029100014000120ADF816000020ADF81C0005A938
:102920002E4803F0E4FF4FF40060ADF804004010BF
:10293000ADF806008010ADF808007520ADF80A006B
:102940004FF48050ADF80C004000ADF80E00400090
:10295000ADF8100001A9214804F0CEF901211F486B
:1029600004F00AFA08211D4804F04CFB08211B481A
:1029700004F051FB0121194804F0FEFA0121174827
:1029800004F0FAF944F62061144804F08BFC144872
:10299000008881B2114804F08BFC1248008881B293
:1029A0000E4804F087FC012208210C4804F0E9FBE2
:1029B00001220C21094804F0E4FB0DB000BD000029
:1029C000B801002014020020002C0140BC010020AE
:1029D0001802002000040040000C014000080040E4
:1029E0005C0200206002002010B5FB48006801284E
:1029F00006D14FF44870F9490860F94908600CE0C5
:102A0000F5480068022805D1C820F4490860F44957
:102A1000086002E00020F0490860F24800680128E0
:102A200006D1C820F04908608000F04908600EE037
:102A3000EC480068022807D14FF44870EA49086062
:102A4000C820EA49086002E00020E6490860E24840
:102A5000006818B3E648006800BB00221146E5484C
:102A600004F09EFB00220421E24804F08AFBDB48CC
:102A7000008881B2DF4804F01BFCD948008881B28D
:102A8000DC4804F011FC04220821DA4804F088FB39
:102A900001220021D74804F074FB3AE0D1480068D5
:102AA00018B3D548006800BB00220821D14804F0C3
:102AB00077FB00221146CF4804F063FBCA48008828
:102AC00081B2CC4804F0F0FBC848008881B2C94804
:102AD00004F0ECFB04220021C64804F061FB012253
:102AE0000421C44804F04DFB13E000220821C14832
:102AF00004F056FB00221146BE4804F042FB0022BF
:102B00001146BC4804F04CFB00220421B94804F0F3
:102B100038FB10BD10B5B948006807287ED2DFE841
:102B200000F07D04C8F7EFEEED00B548006800281E
:102B300075D1A948006810B9AA48006828B1B14801
:102B40000068401CAF49086002E00020AD49086001
:102B5000AC480068012824D90020AA490860AA4886
:102B60000068012803D10020A749086008E0A648B2
:102B7000006828B99848006810B101209C49086095
:102B8000A2480068012803D10020A049086008E09D
:102B90009E48006828B99348006810B10120964902
:102BA000086002209A49086044F62060994908604C
:102BB0000846008881B2984804F07AFB8C48006887
:102BC00030B902208449086000208649086050E03E
:102BD0008948006830B900207F4908600220814997
:102BE000086046E0012086490860002085490860A9
:102BF000794908607B4908607D4908607E49086022
:102C00002820864908603C20854908608348006880
:102C10004FF4A57148438008824901E0FEE32BE0B0
:102C200008607F4800684FF4A5714843C0087E499A
:102C300008607E480078022801D1704908607B480E
:102C40000078032801D16D4908607848007804288D
:102C500002D103206949086000206D49086042F2F2
:102C600010706C4908600846008881B26A4804F018
:102C70001FFBFFF7B9FE1BE00020574908605949C8
:102C800008605B4908605C49086068480078022871
:102C900001D15A49086065480078032801D1574995
:102CA000086062480078042802D102205349086075
:102CB000DCE35F480068B0F5967F03D90120464900
:102CC00008600AE05A4800681E2803D202204249E0
:102CD000086002E0002040490860564800681E284D
:102CE00003D201203F4908600FE052480068B0F568
:102CF000967F07D902203B49086006E0D8E2FDE153
:102D000012E105E0002037490860FFF76DFEADE3F2
:102D10003148006810B93348006828B13948006864
:102D2000401C3849086002E00020364908603548F8
:102D3000006803284ED900203249086032480068F4
:102D4000012803D100203049086008E02E480068BF
:102D500028B92148006810B10120254908602B4896
:102D60000068012803D100202849086008E02748AE
:102D7000006828B91B48006810B101201E4908608E
:102D80001B480068012861D11B48006801285DD1FB
:102D900000201C4908601049086012490860144965
:102DA00008601549086024490860144908602348F0
:102DB0000068012808D12248006828B902201F496C
:102DC000086004201F49087000201F490860FFF7B1
:102DD0000BFE4BE33AE00000300200204C020020E2
:102DE000500200203402002054020020580200202B
:102DF0003C020020002C014040020020EC01002099
:102E0000D0010020D401002094010020980100206E
:102E1000380200205C02002000080040B8010020B9
:102E2000BC0100208C01002090010020A5010020A1
:102E3000DC010020E001002008020020CC0100207D
:102E4000F8010020A3010020F0010020FE480068E6
:102E500000BBFE480068FE490968884206D201208E
:102E6000FC4908600020F849086033E0F748006832
:102E7000F7490968884206D90220F649086000200F
:102E8000F149086026E00020F24908600120EE497F
:102E900008601FE0F0480068F0490968884206D2DF
:102EA0000120EF4908600020EE49086012E0EA487E
:102EB0000068EA490968884206D90220E8490860A2
:102EC0000020E849086005E00020E549086001208D
:102ED000E4490860DC480068012822D1E148006824
:102EE00001281ED10020E0490860DA490860DC4969
:102EF0000860D5490860DB490860DC490860DC49A6
:102F00000860DC480068012808D1DB48006828B95F
:102F10000220D84908600420D84908700020D84908
:102F20000860FFF761FDA1E2D6480068C84909685A
:102F3000884275D1D4480068C84909688842F8D1E8
:102F4000C448006810B9C648006828B1C64800687F
:102F5000401CC549086002E00020C3490860C2481F
:102F6000006801282ED90020BF490860C7480068C2
:102F7000012803D10020C549086012E0C348006859
:102F800078B9B448006860B10120AF4908600020FA
:102F9000B0490860B5490860BD480068401CBC499C
:102FA0000860BC480068012803D10020B9490860C6
:102FB00008E0B848006828B9A948006810B10120A5
:102FC000A8490860B248006808B39F480068012813
:102FD00036D1A1480068B0490968884221D2A14889
:102FE000006801281DD0AA480068401E9B49096856
:102FF0002D2202FB001098490968884208D99B4895
:103000000068401C9949086001209549086052E019
:10301000002093490860954908608B4908604AE0A0
:1030200068E09248006838B10020904908608C49F7
:103030000860854908603EE001208A4908603AE05E
:103040009348007800F00100C0B1804800689349BF
:103050000968884203D201207E4908602BE00020E5
:103060007C49086001207849086000207F49086099
:1030700087480068401C864908601CE08448007846
:1030800000F00100B8B971480068714909688842C8
:1030900003D902206F4908600DE000206D490860E7
:1030A000012069490860002070490860784800687C
:1030B000401C7749086064480068012817D16948B6
:1030C0000068012813D10020674908606149086041
:1030D000634908605C4908606249086003206449EC
:1030E000086000206A490860012062490860FFF713
:1030F0007BFC02E005205E490860B7E153480068A8
:1031000060490968884206D20120524908600020BF
:103110004D49086012E04D4800685A4909688842E4
:1031200006D902204B49086000204749086005E0A5
:10313000002048490860012043490860544800685D
:10314000401E464909682D2202FB001052490968B9
:1031500088422BD24E480068401E4049096802FB55
:1031600000103D490968884206D901203C490860A1
:1031700000203C49086039E045480068401E374956
:1031800009682D2202FB001033490968884206D2E3
:1031900002203349086000203249086026E0002000
:1031A0002F49086001202F4908601FE02A48006865
:1031B00039490968884206D201202949086000205F
:1031C0002849086012E024480068334909688842A9
:1031D00006D202202249086000202249086005E04A
:1031E00000201F49086001201E4908601648006839
:1031F000012825D11B480068012821D1002015494C
:10320000086017490860264800680F49086025488B
:103210000068144908600E4800681A4908600F48A1
:103220000068194908600420114908601E480078A8
:10323000032805D101201249086000201B490860BD
:10324000FFF7D2FB12E100003C020020B801002091
:10325000A801002030020020BC010020AC010020A9
:103260003402002040020020D40100200802002087
:10327000EC010020CC010020F8010020A301002077
:10328000F00100200C020020100200209401002018
:103290000402002098010020B4010020B0010020A9
:1032A0004402002048020020A5010020F401002073
:1032B0006F48006810B96F48006828B16E48006810
:1032C000401C6D49086002E000206B4908606A48B4
:1032D000006804284ED900206749086067480068E4
:1032E000012803D100206549086008E063480068B0
:1032F00028B95F48006810B1012061490860614841
:103300000068012803D100205E49086008E05D489C
:10331000006828B95748006810B101205A49086070
:1033200057480068012825D157480068012821D155
:103330000020514908604E4908604E4908605049D4
:103340000860514908605148006801280FD1504871
:103350000078032802D104204E4908604C480078C8
:10336000042804D101F049FD00204A490860FFF714
:103370003BFB7BE04848006848490968884206D220
:1033800001203B49086000203D49086012E04248A6
:10339000006842490968884206D902203449086019
:1033A00000203749086005E000203149086001200D
:1033B000334908603A4800683A490968884206D2A9
:1033C00001202C49086000202F49086012E0344891
:1033D000006834490968884206D9022025490860F6
:1033E00000202949086005E00020224908600120EA
:1033F000254908602848006828490968884231D171
:10340000274800682749096888422BD100201A49BB
:103410000860174908601749086000E025E018496E
:1034200008601949086019480068012810D1184837
:103430000078032802D101201B49086000201549AB
:1034400008601348007804280CD101F0D6FC09E08C
:103450000E480068022805D100200E4908600120AE
:1034600012490860FFF7C0FA00E000BF00BF10BDBE
:103470003002002034020020D401002094010020FA
:103480003C0200209801002040020020F4010020AE
:10349000A5010020EC010020B8010020140200204A
:1034A000BC01002018020020F8010020F0010020DB
:1034B00010B50020FB4908700120FB49087002206C
:1034C000FA49087001221146400703F070FC0121FF
:1034D000880703F051FC10BD0020F249087002205B
:1034E000F14908700320F14908700120F049086093
:1034F0000020F0490860F049086010E00020EF4922
:10350000ED4A126841F822000021ED48EA4A1268AB
:1035100040F82210E8480068401CE7490860E64887
:1035200000681428EAD370470020DE4908700320A1
:10353000DD490870DD4908700120DD490860002080
:10354000E0490860DB490860DB49086010E00020C2
:10355000DA49D94A126841F822000021D848D64AEF
:10356000126840F82210D4480068401CD249086014
:10357000D14800681428EAD3704710B50020C94923
:1035800008700420C84908700520C8490870012047
:10359000C749086001221146800703F008FC012199
:1035A000880703F0E9FB10BD10B5BE480078062877
:1035B0000FD00A2804D00B2805D00C280CD105E028
:1035C000FFF776FF09E0FFF787FF06E0FFF7ACFFA4
:1035D00003E0FFF7D2FF00E000BF00BF0022082198
:1035E000B94803F0DDFD00221146B74803F0C9FDDC
:1035F00000221146B44803F0D3FD00220421B24852
:1036000003F0BFFD10BD10B5B048007801280AD105
:103610000020A4490870A44908700120A34908703B
:103620000020A3490860AA48007801287DD1A0485D
:103630000068012879D0A74800680A2876D2DFE818
:1036400000F0051739575B868DB2D6E60020A249F7
:103650000860A2490860A249086040F2DC50A14914
:10366000086001209B490860002091490860D0E073
:1036700099480068401C98490860012098490860F2
:103680009848006898490968884204D295480068BB
:103690000A30944908609548006800EB80008E4924
:1036A0000968884205D200208B49086002208949B8
:1036B0000860AEE088480068401C87490860002028
:1036C000874908608748006889490968884204D9A1
:1036D000844800680A38834908607F4800681E28CB
:1036E00005D900207C49086003207A49086090E0F1
:1036F00000207B4908608CE078480068401C7749CE
:1037000008600220764908607A4800686B49694A77
:10371000126841F82200784800686949654A1268D1
:1037200041F822007148006801E098E070E000EB89
:1037300080006A490968884208D203205C49086011
:1037400000206649086005206249086061E0584829
:10375000006810B906205F4908605AE05F480068B9
:10376000401C5E49086000205D4908605D480068B3
:103770005D490968884204D25A4800680A305949AC
:103780000860564800681E280CD90020534908607C
:1037900007205049086047480068401C45490860B8
:1037A00001F02BFB35E04D480068401C4B49086098
:1037B0004C48006840F2DC51884204D9494800680E
:1037C0000A3848490860454800681E280ED900207C
:1037D000424908604249086040F2DC5041490860B3
:1037E00000203C49086002203149086011E03F4850
:1037F000006800EB800039490968401A36490860C2
:1038000000203749086001203249086001E000E0EB
:1038100000BF00BF3248006820B942F2107037493B
:1038200008600FE02E480068012803D100203349CA
:10383000086007E02A480068022803D144F62060A7
:103840002E4908602D48008881B22D4803F030FDD4
:103850002448008881B22A4803F02CFD3BE11C4833
:1038600000780028FAD11B4800680028F6D01948D3
:1038700000680A287ED2DFE800F07D0545505983B4
:103880008AAFD3EA1948006800EB80001249096842
:10389000401A1249086000201149086008200D49AB
:1038A0000860F3E0A2010020A5010020A301002090
:1038B000EC010020C001002064020020140300205D
:1038C00064030020CC010020002C01409C0100205A
:1038D000D8010020F8010020FC0100200002002097
:1038E00038020020600200201C0200202402002078
:1038F00020020020B8010020BC0100205C02002052
:1039000000080040FE480068FE4908600020FE49AB
:1039100008600920FD490860B8E00020F949086006
:10392000F94908600420F9490860AFE0F5480068EB
:10393000401CF44908600220F3490860F44800681C
:10394000F449F54A126841F82200F4480168F44845
:10395000F14A126840F82210F248006800EB80003B
:10396000E849096888420AD20320EF49086000202C
:10397000E44900E089E008600520E449086085E04A
:10398000E948006810B90620E04908607EE0DD489B
:103990000068401CDB4908600020DB490860E34800
:1039A0000068E3490968884204D2E04800680A30A8
:1039B000DE490860D34800681E280CD90020D14990
:1039C00008600720D1490860D3480068401CD249EC
:1039D000086001F012FA59E0CA480068401CC94961
:1039E0000860D248006840F2DC51884204D9CF48D0
:1039F00000680A38CD490860C24800681E280ED900
:103A00000020C0490860C049086040F2DC50C74946
:103A100008600020BD4908600220C349086035E005
:103A2000B8480068401CB74908600220B6490860E1
:103A3000BC48006800EB8000B2490968884205D2A2
:103A40000020B04908600720B04908601EE0AD487A
:103A50000068401CAB4908600020AB490860B348CF
:103A60000068B4490968884204D9B04800680A3837
:103A7000AE490860A34800681E2805D90020A14966
:103A800008600620A149086000E000BF00BF9E4812
:103A9000006820B942F21070A74908600FE09A4808
:103AA0000068012803D10020A349086007E0964878
:103AB0000068022803D144F620609F4908609E48B0
:103AC000008881B29D4803F0F3FB9848008881B2DA
:103AD0009A4803F0EFFBFFF71DF810BD10B59848AA
:103AE0000078012810D10020964908709649087086
:103AF000012096490870FCF714FD00208A490860EF
:103B000093490860934908609148006800287DD176
:103B10008C48007810281CD183480068C8B98D48AB
:103B20000068B0B90020874908708B4800688B494D
:103B300008608B4800688B49086001208A4908604A
:103B400004207949086001208249086000208749E3
:103B500008607C4800780E2807D100207949087059
:103B60007C49086001207A4908606848006800289C
:103B70007ED06648006808287BD2DFE800F07A042F
:103B80001436568188AD00205D4908605E490860A2
:103B900040F2DC506549086002205C490860002062
:103BA00061490860F6E056480068401C54490860C6
:103BB0000120554908605D4800685D4909688842F0
:103BC00004D25A4800680A305849086055480068CD
:103BD00000EB80004A490968884205D20020484924
:103BE0000860032049490860D4E045480068401C4B
:103BF000434908600020444908604C4800684D492A
:103C00000968884206D94948006800E0EAE00A38B5
:103C1000464908603A4800681E2805D900203849FE
:103C20000860042039490860B4E035480068401C49
:103C30003349086002203449086035480068354936
:103C4000354A126841F82200344800683449324A43
:103C5000126841F822003348006800EB80002849D0
:103C6000096888420BD203202F490860002001E038
:103C7000B5E08EE02249086005202449086089E00B
:103C80002948006810B906202049086082E01C48D5
:103C90000068401C1A49086000201B49086023483E
:103CA000006823490968884204D2204800680A3025
:103CB0001E490860124800681E280CD900201049CF
:103CC000086007201149086013480068401C124929
:103CD000086001F092F85DE009480068401C08495E
:103CE00008601248006840F2DC51884204D90F484D
:103CF00000680A380D490860014800681E2837E04E
:103D0000FC0100200002002038020020F801002001
:103D1000B801002014030020C0010020BC010020D5
:103D20006403002024020020EC0100206002002037
:103D30001C020020200200205C020020000800403D
:103D40009C010020A2010020A5010020A301002069
:103D5000CC010020F0010020A80100200C0200206E
:103D6000AC0100201002002004020020F401002019
:103D70000ED90020F8490860F849086040F2DC508C
:103D8000F74908600020F74908600420F6490860F8
:103D900000E000BF00BFF148006820B942F2107097
:103DA000F24908600FE0ED480068012803D10020C7
:103DB000EE49086007E0E9480068022803D144F6AC
:103DC0002060EA490860E948008881B2E84803F0C9
:103DD0006FFAE348008881B2E54803F06BFAFEF71A
:103DE00099FEFAE0E34800680128FAD1DD4800684E
:103DF000002875D0DB480068082872D2DFE800F0A0
:103E0000C104082A4872799E0720D6490860B9E0A3
:103E1000D1480068401CD04908600120CF490860A3
:103E2000CF480068D4490968884204D2CC48006869
:103E30000A30CB490860D148006800EB8000C649D1
:103E40000968884205D20020C34908600320C5499B
:103E5000086097E0C0480068401CBF490860002027
:103E6000BE490860BE480068C5490968884204D94F
:103E7000BB4800680A38BA490860B74800681E287D
:103E800005D90020B44908600420B649086079E0EB
:103E9000B1480068401CB04908600220AF49086082
:103EA000B8480068B849B94A126841F82200B848D1
:103EB0000168B848B54A126840F82210AF48006857
:103EC00000EB8000A4490968884208D20320A64973
:103ED00008600020A04908600520A249086051E060
:103EE00076E04EE0A048006810B906209D490860C1
:103EF00048E099480068401C9749086000209749AD
:103F00000860974800689C490968884204D2944830
:103F100000680A30924908608F4800681E280CD952
:103F200000208D49086007208E4908609748006886
:103F3000401C9649086000F060FF23E08648006856
:103F4000401C854908608648006840F2DC51884280
:103F500004D9834800680A38814908607E480068AF
:103F60001E280DD900207C4908607C49086040F279
:103F7000DC507B49086000207A4908607A49086073
:103F800000E000BF00BF7548006820B942F2107021
:103F9000764908600FE071480068012803D10020CD
:103FA0007249086007E06D480068022803D144F6B2
:103FB00020606E4908606D48008881B26C4803F04B
:103FC00077F96748008881B2694803F073F902E025
:103FD000032065490860FEF79DFD10BD64206E4911
:103FE00008606E4908604FF496706D4908606D492D
:103FF000086001206C49086000204860886001204A
:10400000C860002008614861032088610020C86101
:1040100008620320486200208862C86270472DE968
:10402000F0410026002761480078112877D2DFE8A8
:1040300000F0F009C1CFDD136877851D3F4D5B2788
:10404000EB31EF005A480078052804DD5848007825
:10405000801F57490870DDE055480078062804DACB
:1040600053480078801D52490870D3E050480078CA
:10407000002804DD4E480078401E4D490870C9E014
:104080004B4800780B2804DA49480078401C48491E
:104090000870BFE044484649097850F82150002094
:1040A0004149434A127841F8220000260127B1E035
:1040B0003D483F49097850F8215001203A493C4A8F
:1040C000127841F8220000260127A3E0364838493B
:1040D000097850F8215002203349354A127841F8C6
:1040E00022000026012795E02F483149097850F831
:1040F000215003212E4A127840F822100026012771
:1041000088E029482A49097850F821500420264996
:10411000274A127841F82200002601277AE078E049
:1041200021482349097850F8215005201E49204A8A
:10413000127841F82200002601276BE01A481C493A
:10414000097850F8215006201749194A127841F889
:104150002200002601275DE0FC010020380200203B
:1041600060020020F8010020EC0100205C02002029
:1041700000080040CC0100201C0200202402002086
:1041800020020020B801002014030020C0010020FC
:10419000BC01002064030020A8010020AC01002025
:1041A000B0010020B4010020E4020020A2010020A0
:1041B000C80100206C486D49097850F8215007204B
:1041C00069496A4A127841F822000026012721E055
:1041D00065486649097850F8215008206249634AC9
:1041E000127841F822000026012713E05E485F495B
:1041F000097850F8215009205B495C4A127841F84F
:1042000022000026012705E0FFF7E8FE02E0FFE7B5
:1042100000E000BF00BF012F79D154480078032887
:1042200014DA51480068642148434F49496801EB5A
:10423000810100EB41004C4989684418B4F5E67FE0
:1042400001D901264CE04A48046049E0474800781B
:10425000062814DA4448C068642148434249096981
:1042600001EB810100EB41003F4949694418B4F575
:10427000B47F01D9012633E03E48046030E03B487A
:104280000078092814DA384880696421484336499F
:10429000C96901EB810100EB41003349096A441807
:1042A000B4F5E67F01D901261AE03348046017E02F
:1042B0002E4800780C2813DA2B48406A64214843C2
:1042C0002949896A01EB810100EB41002649C96A4D
:1042D0004418B4F5B47F01D9012601E027480460F1
:1042E000012E07D120482149097840F8215000F0DB
:1042F00084FD0CE01D4800780B2805DA1B48007887
:10430000401C1A49087002E000201849087000207B
:104310001B4908701B480078012823D11648006803
:1043200013490968884205D314480068114909688F
:10433000884202D200F061FD14E0002012490870AA
:1043400001201249087000200849087010490860CF
:1043500000220121880702F02AFD00214FF0804051
:1043600002F00AFDBDE8F081E4020020C80100204F
:10437000A8010020AC010020B0010020B401002001
:10438000A20100209C010020A5010020A301002023
:10439000EC01002010B501F080FA352001F018FD85
:1043A000FE4801F0BFFA0121FC4801F0BEFBFC48C9
:1043B000008881B2F948801C01F0B7FBF9480088F9
:1043C00081B2F648001D01F0B0FBF7480068C0F369
:1043D0000F21F248801D01F0A8FBF3480178EF4857
:1043E000083001F0A2FBF1480068C0F30F21EB4850
:1043F0000A3001F09AFBED480178E8480C3001F0F2
:1044000094FBEB48008881B2E4480E3001F08DFB4C
:1044100001F04FFA10BD10B5E048008801281AD10C
:10442000DE484088DE490860DC488088DD49086055
:10443000DA480189C08801EB0020DB490860D748D1
:104440008189408901EB0020D8490860D348C089A0
:10445000D749086011E02820D14908603220D149AD
:1044600008604001D04908604FF4AF60CF49086050
:104470000E20CF490860FFF78DFF10BD10B5002456
:10448000CC48007809280AD004DC01281CD0052873
:104490006FD158E00D280CD01028F9D194E0C6480F
:1044A0000078002804DDC4480078401EC249087026
:1044B0008FE0C1480078401C062190FBF1F201FB1F
:1044C0001200BD49087084E00024BB48007806282B
:1044D00036D2DFE800F035030F1B212BB24800680D
:1044E00040F2D661884204D2AF4800680A30AE4933
:1044F000086026E0AD48006840F2DC51884204D2F2
:10450000AA4800680A30A94908601AE0A84800686B
:10451000401CA749086014E0A1480068502804D254
:104520009F480068401C9E4908600AE09D4800685A
:10453000642804D29B480068401C9A49086000E047
:1045400000BF00BF45E000249B480078062838D211
:10455000DFE800F03703101C252E9348006840F276
:10456000DC51884204D9904800680A388E490860B6
:1045700028E02DE08D48006840F2E241884204D9ED
:104580008A4800680A38894908601BE08848006842
:1045900020B187480068401E8549086012E08048C5
:1045A000006820B17E480068401E7D49086009E02F
:1045B0007C48006820B17B480068401E794908604B
:1045C00000E000BF00BF04E00124FFF7E3FE00E0CD
:1045D00000BF00BF002077490870012C14D10024CF
:1045E00076490870012076490870002072490870E9
:1045F0007449086000220121880702F0D8FB0021DD
:104600004FF0804002F0B8FB6F48007801282FD1AE
:104610006248408862490860604880886149086053
:104620005E480189C08801EB00205F4908605B4853
:104630008189408901EB00205C4908605748C089A6
:104640005B490860002400205C49087001205C4937
:1046500008700020584908705A490860002201215A
:10466000880702F0A4FB00214FF0804002F084FB99
:104670005648007801280ED15548006858B94E4870
:10468000007840B902204F49086001205049086075
:104690000020504908604B48006810B90220494981
:1046A00008604D480078012805D14348007810B9CA
:1046B00001204A4908604948006800286CD04748F2
:1046C0000068072869D2DFE800F0DB04143654994B
:1046D000B7000020424908604249086040F2DC50BF
:1046E0004149086002203D490860002035490860C2
:1046F000C7E03B480068401C39490860012039493F
:1047000008603948006828490968884204D2364858
:1047100000680A30344908602548006800EB8000D2
:104720002F490968884205D200202D4908600320DE
:104730002A490860A5E02A480068401C284908600A
:1047400000202849086028480068184909688842FC
:1047500004D9254800680A382349086020480068C1
:104760001E2805D900201E49086004201B49086046
:1047700087E01B480068401C19490860022019495D
:1047800008600B48006800EB800015490968884202
:1047900033D202200B4929E098E071E000F00708CD
:1047A000280200202C0200201C02002020020020F1
:1047B00024020020A2010020C8010020A501002041
:1047C000A3010020EC0100209C0100209F0100209B
:1047D000F0010020F40100209E010020F8010020DB
:1047E000FC01002038020020600200200860002048
:1047F0003849086005203849086042E035480068BB
:10480000401C34490860002034490860344800687E
:1048100034490968884204D2314800680A30304976
:1048200008602C4800681E2805D900202949086026
:1048300006202949086024E026480068401C2549D4
:1048400008602748006840F2DC51884204D92448B7
:1048500000680A38224908601E4800681E280ED9E0
:1048600000201C4908601D49086040F2DC501C49CA
:10487000086000201849086002201B49086000E019
:1048800000BF00BF1548006820B942F210701749F8
:1048900008600FE011480068012803D10020134987
:1048A000086007E00D480068022803D144F6206044
:1048B0000E4908600D48008881B20D4802F0F8FCEE
:1048C0000748008881B20A4802F0F4FCFEF722F99A
:1048D00010BD0000FC010020F8010020380200207B
:1048E000600200201C020020EC0100205C0200207D
:1048F0000008004008B54FF4C06000F0EFFB342022
:104900008DF8000000208DF801008DF802000120D4
:104910008DF80300684600F0E6FB08BD08B54FF4CB
:104920000050ADF8000010208DF8030003208DF832
:1049300002006946F94801F0CFFA0420ADF8000002
:1049400048208DF803006946F44801F0C5FA4FF499
:104950007060ADF8000010208DF8030003208DF882
:1049600002006946EE4801F0B7FA4FF47040ADF826
:10497000000048208DF803006946E94801F0ACFAD0
:10498000FF20ADF8000010208DF8030003208DF803
:1049900002006946E34801F09FFA4FF48060ADF8E9
:1049A000000018208DF8030003208DF802006946EE
:1049B000DA4801F091FA4FF40060ADF800000420ED
:1049C0008DF803006946D54801F086FA08BD10B598
:1049D00000F003FB0121084601F03AFD01211C20F3
:1049E00001F036FD0121602001F032FD0121C804F3
:1049F00001F03BFD10BD10B5FFF7E9FFFFF78EFF9B
:104A0000FFF778FF10BD1FB504464FF4E13000906A
:104A10000020ADF80400ADF80600ADF80800ADF8D0
:104A20000C000C20ADF80A006946204602F0C5FCD7
:104A3000012240F22551204602F057FD012240F2AA
:104A40002771204602F051FD0121204602F041FD70
:104A50001FBD2DE9F04107460D46164600240CE027
:104A600000BF4021384602F00FFE0028F9D0295D32
:104A7000384602F09BFD601C84B2B442F0DBBDE816
:104A8000F08110B5002440F22551A74802F012FE33
:104A9000002871D0A44802F08DFDC4B2A34800687C
:104AA000012869D1A24800680A286FD2DFE800F027
:104AB000050B656F777F878F979F802C02D1012030
:104AC0009B49086081E1FE2C05D199480068401C93
:104AD000974908604FE0FA2C1AD1002094490860E9
:104AE000944908709448006850B1002092490860C9
:104AF0009248007803283ED10520914908603AE0A9
:104B00008E480078032836D104208D49086032E0B1
:104B1000FB2C30D10020864908608949086085490E
:104B2000087000220821874802F03AFB0022114653
:104B3000844802F026FB00221146824802F030FB36
:104B4000002204217F4802F01CFB00BF4021764870
:104B500002F09AFD0028F9D08121734802F026FD69
:104B600000BF4021704802F08FFD0028F9D050218D
:104B70006D4802F01BFD28E128E16D480068401CEB
:104B80006B49086001206C4908601EE11CE16E4819
:104B9000046067480068401C6549086015E16A4880
:104BA000446063480068401C614908600DE1664844
:104BB00084605F480068401C5D49086005E1624808
:104BC000C4605B480068401C59490860FDE05E48CD
:104BD000046157480068401C55490860F5E05A4890
:104BE000446153480068401C51490860EDE00020D2
:104BF0004F490860FE2C7DD153480068642148432A
:104C00005149496801EB810100EB41004E49896837
:104C100008444E4908604C48C068642148434A49EA
:104C2000096901EB810100EB4100474949690844EA
:104C3000474908603F480078401C3E4908700846D4
:104C40000078002856DD414800684E214843F02195
:104C5000B0FBF1F03F490968C1F150013E4A1268CA
:104C6000511A08443D4908603948006868214843A2
:104C70004FF4A071B0FBF1F139480068C0F1640055
:104C8000384A1268101A08443749086033480068E7
:104C90003649096888427DD9304800683449096836
:104CA000884277D23048006832490968884271D911
:104CB0002D4800683049096888426BD22648006850
:104CC0002E490860274800682D4908602D48006873
:104CD0002D4908602D4800682D49086006201849B4
:104CE000086000201149086000BF40210E4802F012
:104CF000CBFC00E067E00028F7D081210A4802F0F1
:104D000055FC00BF4021084802F0BEFC0028F9D045
:104D10005221054802F04AFC55E03BE000100140FA
:104D20000014014000180140004C0040F001002038
:104D30006C02002078020020F4010020A501002070
:104D4000EC010020002C0140B40300207002002080
:104D50007402002028020020B80100201402002064
:104D60002C020020BC01002018020020A801002015
:104D7000B0010020AC010020B40100200C02002092
:104D8000100200203C0200204402002040020020CB
:104D900048020020464800684649086046480068C6
:104DA000464908600020464908604649086046496F
:104DB000086001204549086045480078032802D171
:104DC00004204449086000E000BF00BF40F22771A2
:104DD000414802F06FFC28B1002240F227713E48A2
:104DE00002F083FB10BD01B53C490098086000BF8C
:104DF0003A4800680028FBD108BD10B54FF40051B7
:104E0000374801F016F94FF4FA70FFF7ECFF4FF452
:104E10000051334801F00FF910BD10B54FF40051A7
:104E2000304801F0ECF818B901202F49087002E071
:104E300000202D4908704FF480512A4801F0DFF816
:104E400018B901202949087002E00020274908709C
:104E50004FF48041234801F0D2F818B901202449C9
:104E6000087002E00020224908704FF400411D48FC
:104E700001F0C5F818B901201E49087002E00020B1
:104E80001C4908700421164801F0B9F818B901202E
:104E90001949087002E000201749087010BD0F483A
:104EA000006820B10D480068401E0C49086070473A
:104EB000A80100200C020020AC01002010020020FC
:104EC0004402002048020020F4010020F0010020EC
:104ED000A5010020EC010020004C004068020020E9
:104EE00000100140002001409C0100209D01002095
:104EF0009E0100209F010020D80100200CB5002059
:104F0000019000906C48006840F480306A49086065
:104F100000BF6948006800F4003000900198401C10
:104F20000190009818B90198B0F5A06FF1D16248CE
:104F3000006800F4003010B10120009001E0002072
:104F400000900098012843D15C48006840F01000B0
:104F50005A4908600846006820F0030008600846C7
:104F6000006840F0020008605348406852494860B9
:104F70000846406848600846406840F480604860E1
:104F80000846406820F47C1048600846406840F4B9
:104F9000E81048600846006840F08070086000BF74
:104FA0004548006800F000700028F9D04248406889
:104FB00020F00300404948600846406840F0020085
:104FC000486000BF3C48406800F00C000828F9D158
:104FD0000CBD10B5FFF792FF10BD10B53648006844
:104FE00040F00100344908600846406834490840F0
:104FF0003149486008460068324908402E49086037
:105000000846006820F4802008600846406820F4C4
:10501000FE0048604FF41F008860FFF7DAFF4FF092
:1050200000602949086010BD10B500210020002251
:10503000214B5B6803F00C0121B1042906D008293B
:1050400028D107E0214B224C236027E01F4B204C46
:10505000236023E0184B5B6803F47010164B5B6809
:1050600003F48032022303EB904022B9194B4343EF
:10507000174C23600DE0104B5B6803F4003323B141
:10508000144B4343124C236003E0104B4343104C3A
:10509000236003E00D4B0E4C236000BF00BF064BA6
:1050A0005B68C3F303130C4CE15C094B1B68CB40FA
:1050B000074C236010BD0000001002400020024099
:1050C0000000FFF8FFFFF6FE08ED00E000127A0096
:1050D0007C02002000093D0080020020314901438C
:1050E000314A1160704770B5002100230F22C47847
:1050F00004B32D4C246804F4E064C4F5E064210A90
:10510000C1F10403CA40447804FA03F184781440DE
:1051100021430901254C0678A155047804F01F05A8
:105120000124AC4005786D11AD0005F1E025C5F80E
:10513000004109E0047804F01F050124AC401C4D37
:105140000678761145F8264070BD1A4A0A40024397
:10515000154B1B1F1A60704739B1134A121D126894
:105160000243114B1B1D1A6006E00F4A121D126804
:1051700082430D4B1B1D1A607047042808D14FF065
:10518000E021096941F004014FF0E022116107E0DC
:105190004FF0E021096921F004014FF0E022116194
:1051A000704700000000FA050CED00E000E400E0AC
:1051B00080E100E080FFFF1F10B50446FA488442FA
:1051C00008D10121401501F05DF90021601501F0C1
:1051D00059F917E0F548844208D10121001501F082
:1051E00051F90021201501F04DF90BE0F0488442FF
:1051F00008D10121C80301F045F900214FF4004016
:1052000001F040F910BD30B502460020002350687F
:10521000E84C20400D790C6844EA05242043506096
:105220009068E54C2040D1E902542C434D7944EA82
:10523000450420439060D06A20F470000C7C641E0A
:10524000E4B2234340EA0350D06230BD0021016044
:10525000017141718160C16001210174704721B108
:10526000826842F00102826003E0826822F001025B
:105270008260704721B1826842F48072826003E0EC
:10528000826822F480728260704710B50023CBB22E
:105290001AB144681C43446002E044689C43446083
:1052A00010BD816841F0080181607047014600200F
:1052B0008A6802F008020AB1012000E0002070476D
:1052C000816841F0040181607047014600208A68CE
:1052D00002F004020AB1012000E00020704721B171
:1052E000826842F4A002826003E0826822F4A00295
:1052F00082607047014600208A6802F480020AB189
:10530000012000E00020704710B50A46002100236C
:10531000416821F46041531E41EA4331416010BDB0
:1053200021B1426842F40062426003E0426822F424
:10533000006242607047F0B504460D46002000212F
:10534000092D11DDE068A5F10A0606EB46070726E0
:1053500006FA07F18843A5F10A0606EB460603FAAA
:1053600006F10843E0600CE0206905EB45070726DD
:1053700006FA07F1884305EB450603FA06F10843F0
:105380002061072A0FDA606B561E06EB86071F2680
:1053900006FA07F18843561E06EB860605FA06F163
:1053A0000843606322E00D2A0FDA206BD61F06EB5C
:1053B00086071F2606FA07F18843D61F06EB8606E6
:1053C00005FA06F10843206310E0E06AA2F10D0639
:1053D00006EB86071F2606FA07F18843A2F10D06A1
:1053E00006EB860605FA06F10843E062F0BD21B13E
:1053F000826842F48012826003E0826822F48012A4
:10540000826070470146C86C80B2704766484C3075
:105410000068704721B1426842F48062426003E054
:10542000426822F480624260704721B1426842F4CF
:105430008052426003E0426822F48052426070472A
:105440000A460021816821F4E041114381607047E0
:1054500021B1826842F40042826003E0826822F453
:1054600000428260704721B1826842F40212826079
:1054700003E0826822F40212826070470146002035
:105480008A6802F400120AB1012000E0002070478F
:10549000F0B504461546002000220026092911DD3A
:1054A000E068A1F10A0707EB470C072707FA0CF29F
:1054B0009043A1F10A0707EB470703FA07F21043ED
:1054C000E0600CE0206901EB410C072707FA0CF2C1
:1054D000904301EB410703FA07F210432061A06BF0
:1054E000C0F30156EF1C06F1010CA7EB0C0707EB0C
:1054F000870C1F2707FA0CF29043EF1C06F1010CF2
:10550000A7EB0C0707EB870701FA07F21043A0632C
:10551000F0BD10B50A4600210023816B21F4401133
:10552000531E41EA0351816310BD08B50023009367
:105530000090009B0B440093009B1A6008BD08B5C7
:10554000024600200090009201F12800009B1844C0
:1055500000900098006880B208BD0A4600214168AA
:10556000164B194011434160704741628262704797
:105570000A460021416821F01F0111434160704734
:1055800040B109490831096841F40001064A08326E
:10559000116007E004490831096821F40001024A5A
:1055A00008321160704700000024014000280140CB
:1055B000003C0140FFFEF0FFFDF7F1FFFFFD3FFF64
:1055C0000246002013680B400BB1012000E00020D0
:1055D0007047CA430260704770B50246002000233E
:1055E00000240B125568CEB205EA060415681D406A
:1055F00015B10CB1012000E0002070BD00220A129C
:10560000D34303607047000001684FF6FE721140FB
:1056100001600021016041608160C1608D49884264
:1056200008D18C490839496841F00F01894A083A84
:1056300051608AE087491431884208D18549083988
:10564000496841F0F001834A083A51607DE08149A0
:105650002831884208D17F490839496841F470618E
:105660007C4A083A516070E07A493C31884208D15E
:1056700078490839496841F47041764A083A5160DE
:1056800063E074495031884208D172490839496849
:1056900041F470216F4A083A516056E06D49643117
:1056A000884208D16B490839496841F47001694A58
:1056B000083A516049E067497831884208D1654924
:1056C0000839496841F07061624A083A51603CE02B
:1056D0006149884206D1011F096841F00F01021F8C
:1056E000116032E05C491431884208D15A49091FDF
:1056F000096841F0F001584A121F116025E056492F
:105700002831884208D15449091F096841F4706161
:10571000514A121F116018E04F493C31884208D1AC
:105720004D49091F096841F470414B4A121F11602D
:105730000BE049495031884207D14749091F0968A0
:1057400041F47021444A121F1160704710B50022C5
:10575000026847F6F0739A430C6A8B6823430C691E
:1057600023434C6923438C692343CC6923434C6A0C
:1057700023438C6A23431A430260CB6843600B685F
:1057800083604B68C36010BD00210160416081608F
:10579000C160016141618161C161016241628162F7
:1057A000704721B1026842F00102026004E0026821
:1057B0004FF6FE731A40026070471AB103680B433C
:1057C000036002E003688B430360704741607047E9
:1057D0000146486880B2704701460020002201F06F
:1057E00080531BB11C4B083B1A6802E0194B083B65
:1057F0001A6802EA01030BB1012000E000207047A3
:1058000000F0805119B11449091F086002E01149E4
:1058100008394860704701460020002201F080539B
:105820001BB10D4B083B1A6802E00A4B083B1A6893
:1058300002EA01030BB1012000E00020704700F0F4
:10584000805119B10449091F086002E00149083973
:1058500048607047080002400804024001460020EA
:10586000FE4A106800F03800084310607047FB499A
:10587000096821F00801F94A1160114609680143DD
:1058800011607047F549096821F01001F34A116071
:1058900011460968014311607047F148EF494860BB
:1058A000F04848607047EE48EC494860ED48486071
:1058B0007047EA48006940F08000E8490861704795
:1058C000E648006940F08000E44908617047042020
:1058D000E249C96801F0010109B101200EE0DF4988
:1058E000C96801F0040109B1022007E0DB49C96879
:1058F00001F0100109B1032000E00420704700B559
:1059000002460423FFF7E3FF034603E0FFF7DFFF50
:105910000346521E012B01D1002AF7D102B90523FB
:10592000184600BD30B5044604254FF43020FFF77B
:10593000E6FF0546042D17D1C848006940F0020073
:10594000C649086108464461006940F040000861AA
:105950004FF43020FFF7D3FF0546C048006941F6F9
:10596000FD710840BD490861284630BD10B50424CA
:105970004FF43020FFF7C3FF0446042C16D1B7487C
:10598000006940F00400B54908610846006940F02C
:10599000400008614FF43020FFF7B1FF0446AF48E4
:1059A000006941F6FB710840AC490861204610BD12
:1059B00000B502460423FFF78AFF034603E0FFF722
:1059C00086FF0346521E012B01D1002AF7D102B9EE
:1059D0000523184600BD10B504244FF43020FFF70E
:1059E000E7FF0446042C16D19C48006940F00400EF
:1059F0009A4908610846006940F0400008614FF488
:105A00003020FFF7D5FF04469448006941F6FB714A
:105A1000084092490861204610BD00208F49C9699D
:105A200001F0020109B1012000E00020704730B50B
:105A3000A5250424FFF7F1FF00B100254FF4302025
:105A4000FFF75DFF0446042C3AD1854883498860FE
:105A5000844888600846006940F0200008610846D4
:105A6000006940F0400008614FF43020FFF747FF25
:105A70000446042C1BD17948006941F6DF710840C7
:105A8000764908610846006940F0100008617648D0
:105A90000580E002FFF733FF0446052C10D06F4865
:105AA000006941F6EF7108406C49086108E0052C77
:105AB00006D06A48006941F6EF71084067490861FD
:105AC000204630BD78B506460C46042500200090DF
:105AD000E802FFF714FF0546042D24D15F48006952
